:020000040800F2
:1000000000000220B5FC000811F8000815F80008EF
:1000100019F800081DF8000821F800080000000089
:100020000000000000000000000000001142000875
:1000300025F8000800000000A142000829F8000887
:1000400005FD000805FD000805FD000805FD000888
:1000500005FD000805FD000805FD000805FD000878
:100060002DF8000895F80008C1F8000805FD000803
:1000700005FD000805FD000805FD000805FD000858
:1000800005FD000805FD000805FD000805FD000848
:1000900005FD000805FD000805FD00083DF9000804
:1000A00005FD000805FD000805FD000805FD000828
:1000B00005FD000805FD000805FD000805FD000818
:1000C00005FD000805FD000805FD000805FD000808
:1000D00005FD000805FD000805FD000805FD0008F8
:1000E000ADFA000805FD000805FD000805FD000843
:1000F00005FD000805FD000805FD000805FD0008D8
:1001000005FD000805FD000805FD000805FD0008C7
:1001100005FD000805FD000805FD0008B9FB000805
:1001200005FD000805FD000805FD000805FD0008A7
:1001300005FD0008C5FB000805FD000805FD0008D9
:1001400005FD000805FD000805FD000805FD000887
:1001500005FD000805FD000805FD000805FD000877
:1001600005FD000805FD000805FD000805FD000867
:1001700005FD000805FD000805FD00080000000061
:0801800005FD000805FD000863
:1001900010B5054C237833B9044B13B10448AFF3C1
:1001A00000800123237010BD940000200000000097
:1001B000580B010808B5034B1BB103490348AFF3C3
:1001C000008008BD0000000098000020580B0108C6
:1001D00053B94AB9002908BF00281CBF4FF0FF31AE
:1001E0004FF0FF3000F072B9ADF1080C6DE904CEAC
:1001F00000F006F8DDF804E0DDE9022304B0704702
:100200002DE9F047089E04468846002B4BD18A42D0
:10021000154667D9B2FA82F24AB1C2F1200701FA53
:1002200002F320FA07F7954047EA030894404FEAA3
:10023000154E230CB8FBFEF71FFA85FC0EFB178842
:1002400043EA084307FB0CF1994209D9EB1807F17F
:10025000FF3080F01B81994240F21881023F2B440D
:100260005B1AA4B2B3FBFEF00EFB103344EA034466
:1002700000FB0CFCA44509D92C1900F1FF3380F0D8
:100280000781A44540F2048102382C4440EA07402B
:10029000A4EB0C0400271EB1D4400023C6E90043A0
:1002A0003946BDE8F0878B4209D9002E00F0EB807B
:1002B0000027C6E9000138463946BDE8F087B3FAA1
:1002C00083F7002F47D18B4202D3824200F2FA809B
:1002D000841A61EB030301209846002EE0D0C6E9A2
:1002E0000048DDE702B9FFDEB2FA82F2002A40F0F0
:1002F0008F80491B4FEA154E1FFA85F80127B1FB85
:10030000FEFC230C0EFB1C1143EA014308FB0CF11D
:10031000994207D9EB180CF1FF3002D2994200F252
:10032000CD808446591AA3B2B1FBFEF00EFB101427
:1003300043EA044408FB00F8A04507D92C1900F152
:10034000FF3302D2A04500F2B6801846A4EB0804A1
:1003500040EA0C409FE7C7F1200CBB4022FA0CFE9C
:100360004EEA030E01FA07F420FA0CF521FA0CF319
:100370004FEA1E482543B3FBF8F92C0C08FB193350
:100380001FFA8EFA44EA034309FB0AF49C4202FA7C
:1003900007F200FA07F10BD91EEB030309F1FF3056
:1003A00080F087809C4240F28480A9F10209734466
:1003B0001B1BADB2B3FBF8F008FB103345EA034456
:1003C00000FB0AFAA24508D91EEB040400F1FF3332
:1003D0006BD2A24569D90238744440EA0940A0FBB7
:1003E0000289A4EB0A044C45C2464B4654D351D073
:1003F000002E69D0B1EB0A0564EB030404FA0CFC8F
:10040000FD40FC404CEA0505C6E90054002747E7DB
:10041000C2F1200320FA03F7954001FA02F021FA15
:1004200003F34FEA154E3843010CB3FBFEF71FFAF6
:1004300085F80EFB173341EA034107FB08F38B42B3
:1004400004FA02F407D9691807F1FF3C2FD28B4256
:100450002DD9023F2944CB1A81B2B3FBFEF00EFB2B
:10046000103341EA034100FB08F38B4207D96918B6
:1004700000F1FF3C17D28B4215D902382944C91A22
:1004800040EA07473BE73746304609E70746E7E6D5
:100490001846FBE64145ABD2B8EB020A69EB0E0207
:1004A00001381346A4E76046E9E7184695E7674632
:1004B000D1E781467CE702382C4447E7ACF1020CD7
:1004C0002B442FE7384608E73746E9E6704700BF78
:1004D00001F0FF01102A2BDB10F0070F08D010F8F5
:1004E000013B013A8B422DD010F0070F42B3F6D1F9
:1004F000F0B441EA012141EA014122F007047FF012
:1005000000070023F0E80256083C85EA010586EA68
:10051000010685FA47F5A3FA87F586FA47F6A5FAA4
:1005200087F68EB9EED1F0BC01F0FF0102F00702B0
:1005300032B110F8013B013A83EA010313B1F8D15B
:100540000020704701387047002D06BF354603383C
:10055000073815F0010F07D1013015F4807F02BF75
:10056000013015F4C03F0130F0BC0138704700BFC6
:1005700008B50B4B1A6842F400721A601A6842F40C
:1005800080621A601A6842F480721A60032000F0D8
:100590002DF800200FF0FCF80EF08CFF002008BDB5
:1005A000003C0240034A044B11681B780B44136063
:1005B000704700BFDC28012000000020014B1868B4
:1005C000704700BFDC28012038B50446FFF7F6FF6E
:1005D000631C054602D0044B1B781C44FFF7EEFF5A
:1005E000401BA042FAD338BD00000020074AD36860
:1005F0004FF6FF010B40000243F0BF6300F4E060E0
:1006000043F400330343D360704700BF00ED00E0C4
:10061000184BDB68C3F3022330B4C3F10705042D84
:1006200003F1040428BF0425062C19D9033B4FF01D
:10063000FF349C4022EA04044FF0FF32AA4021EA32
:10064000020101FA03F2224312010028D2B20ADBAE
:1006500000F1604000F5614080F8002330BC704735
:1006600000242346E8E7044B00F00F0003441A7609
:1006700030BC704700ED00E0FCEC00E000F01F0132
:1006800001234009024A8B4042F82030704700BFE6
:1006900000E100E04309203300F01F00012203497C
:1006A00002FA00F041F82300704700BF00E100E0CB
:1006B0000138B0F1807F0ED2084B10B4084C58605E
:1006C000F02084F823000022072110469A60196068
:1006D0005DF8044B70470120704700BF10E000E058
:1006E00000ED00E0044A136804280CBF43F0040343
:1006F00023F004031360704710E000E070B5044677
:10070000002966D1D0E902310B4343F4007122681D
:10071000E0691568334B002803EA050343EA010347
:1007200014BF00214FF480610B4313600120156852
:10073000FFF74AFF236840221D6001205A605E686F
:10074000FFF742FF236800255E609D60DD609A69C7
:100750004FF641710A4042F080029A6101209E6981
:10076000FFF732FF236801209E61DD61DD69FFF73D
:100770002BFF22681C4BD56141F21805012051590D
:100780000B4043F0087343F0040353515659FFF7ED
:100790001BFF2368154A5E5103F5805301201A6040
:1007A0001D68FFF711FF2368A26903F58051012A34
:1007B0000D6007D141F21C015A5842F4803242F0D8
:1007C00040025A5063690A4A998811601B68536055
:1007D00070BD4FF480434FF40062C0E902324FF421
:1007E000944194E70F8120FF233FDEF88020C1026F
:1007F000408002402DE9F04190F84540012C78D02E
:1008000001250224C16280F8455080F84440B3B10C
:10081000C5695C1E0DB3002C53D140F2F45505FBA5
:1008200004224FF4801601EB44150134A342C5E9BC
:1008300002212E6002F2F45205F12005F5D8056878
:1008400041F210020023A95001241A4680F84440C6
:1008500080F845301046BDE8F081B4B940F2F45557
:1008600005FB04224FF4801701EB44152F602E681E
:10087000AA60013446F44006A342E9602E6002F209
:10088000F45205F12005F1D8D9E79C4228BF1C4657
:10089000A04617462C464FF4801E0D46C5F800E0D2
:1008A0002E68AF6046F44006AC46013445F8206B34
:1008B000444507F2F457CCF80C50EFD3A342CDD8FF
:1008C000BDE79C4228BF1C46A64616460D4600249E
:1008D0004FF4801C2F460134AE60C5F800C074454B
:1008E00005F1200506F2F456FD60F3D3A34294D837
:1008F000A5E702221046BDE8F08100BF2DE9F041D6
:1009000090F84540012C48D0904601240222816293
:1009100080F8454080F84420B3B15D1E22D140F2FA
:10092000F45404FB05824FF0004701EB451444F2F8
:10093000F4560135AB42C4E901622760E16002F27E
:10094000F45204F12004F4D8056841F20C020023AB
:10095000A95001241A4680F8444080F845301046DA
:10096000BDE8F0819D4228BF1D46AE4646460C4676
:1009700000254FF0004C44F2F45227460135C4E9FB
:100980000126C4F800C0754504F1200406F2F456AF
:10099000FC60F2D3AB42C2D8D6E702221046BDE8D3
:1009A000F08100BF002800F08A802DE9F04790F820
:1009B000443082B0044603F0FF02002B71D0AF49EF
:1009C000AF4A00230193486C236840F48040486498
:1009D000496C01F4804101910199516821F40001B1
:1009E00051605168206A03F58053014351601A68D1
:1009F00042F001021A60FFF7E1FD054605E0FFF74E
:100A0000DDFD401BB0F5FA7F50D8236803F5805216
:100A10001268D107F3D41D6900F07EFF994B9A4A02
:100A20000344934225F01C054BD9984B984A034444
:100A300093427AD845F00C0521680D6194F8443052
:100A4000422B24D0422384F844300A69238A02F0DE
:100A50001C02DB0242F003029BB213434FF400423C
:100A60004A610B61FFF7AAFD064604E023681D6991
:100A700015F0010528D0FFF7A1FD801BB0F5803FE0
:100A8000F4D30122002384F8442084F84530204622
:100A90000121FFF733FE012084F8440002B0BDE8D5
:100AA000F08780F845200DF04BFD88E703200023F8
:100AB00084F8440084F8453002B0BDE8F087012096
:100AC000704745F00805B7E7012784F84470FF2018
:100AD000FFF77AFD6368002B36D194F84430422B3F
:100AE000D5D02568422384F84430D4E9022029690E
:100AF000238A01F01C01DB02520841F0030142EAA3
:100B0000D0029BB20B4392B26A612B61FFF756FD94
:100B1000054603E023681B69DB0773D5FFF74EFD2D
:100B2000401BB0F5803FF5D3ABE75A4B5A4A03441C
:100B3000934281D9594B5A4A0344934294BF45F09A
:100B4000040545F0100577E7FFF738FDAA46804613
:100B50004FF0820994F84430822B1ED0216884F82B
:100B600044900A69238A02F01C02DB0242F041022F
:100B70009BB213430B61FFF721FD064603E0236898
:100B80001A69D20739D5FFF719FD801BB0F5803FF0
:100B9000F5D384F8447084F845A0FFF70FFD41F2C7
:100BA0008833A0EB080098423CD86E07D2D594F861
:100BB0004430422B3FF46BAF2168422384F8443029
:100BC0000A69238A02F01C02DB0242F003029BB294
:100BD00013434FF480524A610B61FFF7EFFC064666
:100BE00004E023681B6913F0010327D0FFF7E6FC3C
:100BF000801BB0F5803FF4D343E75D6984F844700F
:100C0000ADB2CAE7012384F8443040F6FF70FFF725
:100C1000DBFC20460021FFF771FD012384F84430FE
:100C2000002049E720460121FFF768FD012200234B
:100C300084F8442084F8453003203DE74FF0010953
:100C400084F844901E46FFF7B9FC4FF0820A8046B4
:100C500094F84430822B33D0216884F844A00A6988
:100C6000238A02F01C02DB0242F041029BB21343D2
:100C70000B61FFF7A3FC074618E000BF00380240F5
:100C80000038014000D3CEFEBFE1E40040F1E9FDB1
:100C90003F787D0100796CFCFF596202001F0AFA5F
:100CA0007FF0FA0223681A69D00738D5FFF786FC6F
:100CB000C01BB0F5803FF5D384F8449084F84560BC
:100CC000FFF77CFC41F28833A0EB08009842A9D8DA
:100CD000A906BDD594F84430822B3FF4D8AE2168E4
:100CE000822384F844300A69238A02F01C0242F409
:100CF0008062DB0242F001029BB213430B61FFF7FB
:100D00005DFC054604E02268136913F001030BD073
:100D1000FFF754FC401BB0F5803FF4D3B1E65D69AA
:100D200084F84490ADB2CBE7526912F0040F14BFBF
:100D30004FF40060002092074FF0010158BF4FF4BC
:100D40008043E06084F84410A36062E790F8453087
:100D5000012B64D002460223012082F8450082F86C
:100D60004430002933D0D36AF0B41C68002C58DB1F
:100D700040F2F450814231D9314DA5FB0145AD0A15
:100D800000FB151040B301352E4801F2F45100FB71
:100D90000511C1F30C01002040F2F4566F1E1C68CF
:100DA00024F040541C60002843D087425E6004D188
:100DB0001C68596044F000541C601C68013044F009
:100DC0000044A8421C60DB68E9D1D36213E082F8DA
:100DD000440082F845107047012DD5D11868DC68B1
:100DE00040F0405018601868C1F30C0140F000401A
:100DF00059601860D462136841F2140158584007D2
:100E000005D541F20400042500245D501C5000204B
:100E1000012382F8443082F84500F0BC704702207C
:100E200070471221002382F8441082F84530F0BC4C
:100E300070471C685E6044F080541C60BDE700BFD2
:100E40000BB002AC0CFAFFFF90F84520012A00F02D
:100E50008A800222816A10B480F844200A68012442
:100E6000002A034680F8454049DB0868CA6800F458
:100E70004070B0F5007F4BD00C68986B14F4407F45
:100E800000F1010059D198639A621168002936DB9C
:100E90001068D16800F44070B0F5007F3CD0146851
:100EA000986B14F4407F00F101005ED19863996261
:100EB0000A68002A23DB0868CA6800F44070B0F5AD
:100EC000007F2ED00C68986B14F4407F00F1010075
:100ED00033D198639A621168002910DB1168D468D5
:100EE00001F44071B1F5007F20D01168986B11F4C6
:100EF000407F00F101001ED198639C6222680120AE
:100F0000002283F8440083F845205DF8044B7047C5
:100F100019639C639A62B8E701201A639962986327
:100F2000C6E7012019639A629863D4E701211A6326
:100F30009C629963E2E7114622460128C3E90D103D
:100F400006BF19630846186B096880681864C1F306
:100F50000D41043901240020D9639A6283F844408A
:100F600083F84500D1E70220704714460A4621461F
:100F7000E3E700BF704700BF704700BF70B503686C
:100F800041F2140604469D5915F0400523D19A59A3
:100F9000D20716D441F214054FF480325A515B59EE
:100FA0001B0400D470BD2046FFF7E6FF21684FF414
:100FB000004001220023485184F8442084F8453041
:100FC00070BDFFF7D7FF236801229A5184F84420AF
:100FD00084F84550DEE70DF00FFB23684020012127
:100FE0000022985184F8441084F84520D2E700BFCD
:100FF00090F84430822B33D070B5044682230068C9
:1010000084F8443015468B01228A016903F4F863A1
:1010100001F01C0143F00103D2020B4392B21343CF
:101020000361FFF7CBFA064604E02268136913F068
:1010300001030DD0FFF7C2FA801BB0F5803FF4D357
:101040000122002384F8442084F84530032070BD39
:101050005269012192B22A60184684F8441070BD8A
:101060000220704738B590F84430422B30D0044607
:101070004223006884F8443005698B01218A03F417
:10108000F86305F01C0543F00303C9022B4389B242
:1010900092B20B4342610361FFF790FA054604E008
:1010A00023681B6913F001030DD0FFF787FA401B7B
:1010B000B0F5803FF4D30122002384F8442084F863
:1010C0004530032038BD0122184684F8442038BD3D
:1010D000022038BD90F84530012B62D070B4014633
:1010E00087B00A68304D0220002381F84400049341
:1010F0002E481468036844F00804012681F845600E
:10110000A5FB03531460126804925B0A059300BFA9
:10111000059B5A1E0592002BF9D10A68049C1460A5
:10112000029314680368204D44F004041460A5FB86
:101130000343126802925B0A039300BF039B5A1E8B
:101140000392002BF9D10A68029C146041F2180442
:10115000009315590368144E45F480151551A6FBEC
:101160000303125900925B0A019300BF019B5A1EB0
:101170000192002BF9D10868009C41F21802012568
:101180008450845844F400548450845844F0020439
:101190008450184681F8453081F8445007B070BC3F
:1011A00070470220704700BFD34D62102C00002012
:1011B0002DE9F04FDFF830C2DFF83082D1F800E0DF
:1011C00083B0002503E00135102D00F09A80012343
:1011D000AB400EEA0304A342F5D14E6826F0100A94
:1011E000BAF1020F00F090804FEA45090322D0F8CF
:1011F00000B002FA09F2D24306F0030702EA0B0B31
:1012000007FA09F70AF1FF3A47EA0B07BAF1010FAB
:10121000076040F29F80C7688B683A4003FA09F381
:101220001343C360F300CED500230193D8F84430B4
:1012300043F48043C8F84430D8F8443025F0030222
:1012400002F1804203F4804302F59C32019305F0E1
:101250000307019BD2F80890BF000F23BB4029EA87
:10126000030A5B4B984224D003F58063984200F058
:101270008480584B984200F08780574B984200F08A
:101280008A80564B984200F08D80554B984200F072
:101290009080544B984200F09380DFF85491484579
:1012A0000CBF4FF007094FF0080909FA07F74AEA9F
:1012B000070AC2F808A0DCF80030E243F70354BF85
:1012C00013402343CCF80030DCF80430B70354BF9C
:1012D00013402343CCF80430DCF80830F70254BF45
:1012E00013402343CCF80830DCF80C30B60205F18B
:1012F000010554BF13402343102DCCF80C307FF46C
:1013000066AF03B0BDE8F08F4FEAD50900EB89095D
:1013100005F00707D9F82020BF004FF00F0B0BFA9C
:1013200007FB22EA0B0A0A69BA4042EA0A02C9F834
:1013300020204FEA45090322D0F800A002FA09F262
:10134000D24306F0030702EA0A0A07FA09F747EA56
:101350000A070760876807EA020ACF6807FA09F7F1
:1013600047EA0A078760D0F804A0C6F300172AEA04
:101370000303AF401F4347604DE74FF0010909FAEF
:1013800007F74AEA070A94E74FF0020909FA07F754
:101390004AEA070A8DE74FF0030909FA07F74AEA14
:1013A000070A86E74FF0040909FA07F74AEA070A2D
:1013B0007FE74FF0050909FA07F74AEA070A78E7D5
:1013C0004FF0060909FA07F74AEA070A71E700BF72
:1013D0000000024000080240000C024000100240E1
:1013E0000014024000180240003C01400038024056
:1013F000001C02400369194214BF012000207047FD
:1014000002B90904816170474369594041617047DD
:10141000002800F032812DE9F0410368DD0782B039
:1014200004462FD5AC498A6802F00C02042A00F069
:10143000EA808A6802F00C02082A00F0E080636803
:10144000B3F5803F00F0E980B3F5A02F00F05481A0
:10145000A14D2A6822F480322A602A6822F4802270
:101460002A60002B40F0DE80FFF7A8F8064605E072
:10147000FFF7A4F8801B642800F2F2802B689B031E
:10148000F6D423689F0775D41A0715D56369002B16
:1014900000F0A580914B904D01221A60FFF78EF865
:1014A000064605E0FFF78AF8801B022800F2D88084
:1014B0006B6F9B07F6D5236858073BD5864A136C9C
:1014C00013F0805340F0DB800193136C43F08053A2
:1014D0001364136C03F080530193019B0126804D2C
:1014E0002A68D10540F1AC80A368012B00F0C980C7
:1014F000052B00F00B81784D2A6F22F001022A673C
:101500002A6F22F004022A67002B40F0BF80FFF709
:1015100055F841F28837804606E0FFF74FF8A0EB18
:101520000800B84200F29C802B6F9807F5D4002E7B
:1015300040F0DC80A269CAB1674DA96801F00C01D6
:10154000082948D0022A674A4FF00001116000F0D4
:10155000E780FFF733F82C46054604E0FFF72EF846
:10156000401B02287CD823689B01F7D4002002B0DE
:10157000BDE8F081584A916811F00C0F24D09168B1
:1015800001F00C0108291CD0E368002B00F09280C8
:10159000554B514D01221A60FFF710F8064604E042
:1015A000FFF70CF8801B02285AD82B689807F7D54C
:1015B0002B68226923F0F80343EAC2032B602368F7
:1015C00062E752685602DFD4434A126895074BD54A
:1015D000E268012A48D0012002B0BDE8F0813F4A0C
:1015E0003D4D1360FEF7EAFF064604E0FEF7E6FF16
:1015F000801B022834D86B6F9F07F7D45BE74A68DB
:1016000050027FF51CAF344A126891037FF53AAF60
:101610006268002A7FF436AFDDE72F4A136843F48F
:1016200080331360FEF7CAFF2B4D064604E0FEF739
:10163000C5FF801B642813D82B689A03F7D520E7D1
:101640002A6842F480722A60FEF7B8FF07462B68CA
:10165000DA053FF549AFFEF7B1FFC01B0228F6D906
:10166000032002B0BDE8F0811B4920690A6822F01E
:10167000F80242EAC0020A6006E70120704700262D
:101680002DE7154A136F43F001031367FEF796FF2A
:10169000114D804641F2883705E0FEF78FFFA0EB41
:1016A0000800B842DCD82B6F9B07F6D5002E3FF41C
:1016B00041AF1BE00C4A084D1360FEF77FFF064662
:1016C00004E0FEF77BFF801B0228C9D82B6899072E
:1016D000F7D42368D8E600BF00380240800E4742A6
:1016E000007000406000474200004742234A136CEC
:1016F00023F0805313641DE7204B1A6842F48022C4
:101700001A601A6842F480321A608BE71B4B1A6F1A
:1017100042F004021A671A6F42F001021A67B5E735
:10172000FEF74CFF064604E0FEF748FF801B022848
:1017300096D82B689901F7D4D4E90736D4E9090281
:10174000E16A0E4C334343EA8013520843EA0163D3
:10175000013A0B4943EA024301226B600A60FEF73B
:101760002DFF054605E0FEF729FF401B02283FF646
:1017700077AF23689A01F6D5F8E600BF003802403B
:1017800060004742154908B58B6803F00C03082B2D
:1017900001D0134808BD4A684B6813F4800302F077
:1017A0003F0210D149680E48C1F38811A1FB000126
:1017B000FEF70EFD094B5B68C3F3014301335B0089
:1017C000B0FBF3F008BD4B680548C3F38813A3FBD7
:1017D00000010023FEF7FCFCECE700BF00380240EC
:1017E0000024F40060B1484A136803F00F038B42F1
:1017F00008D2CBB21370136803F00F038B4201D0F1
:101800000120704703682DE9F0419D0714D55C075E
:1018100004D53E4CA26842F4E052A2601A0704D5F7
:101820003A4CA26842F46042A260384C8568A268D3
:1018300022F0F0022A43A260DF0704460D4622D5BB
:101840004268012A56D0931E012B304B1B6858D991
:10185000990725D52D4EB36823F003031343B360D6
:10186000FEF7ACFE41F28837804605E0FEF7A6FEA3
:10187000A0EB0800B84242D8B368626803F00C03DA
:10188000B3EB820FF2D1204A136803F00F03AB428F
:1018900009D9EBB21370136803F00F03AB4202D007
:1018A0000120BDE8F08123685A0706D51749E06892
:1018B0008A6822F4E05202438A601B0711D4FFF7C2
:1018C00061FF124B12499B68124AC3F30313CB5CAE
:1018D00020FA03F3002013600DF05AFF0020BDE84A
:1018E000F0810A4A2169936823F4604343EAC10303
:1018F0009360E4E7054B1B689E03ABD4D0E703205D
:10190000EDE79801A6D4CBE7003C02400038024046
:10191000040D01082C000020014B1868704700BF1F
:101920002C000020044B054A9B680549C3F3822321
:101930000868D35CD840704700380240140D010895
:101940002C000020044B054A9B680549C3F3423331
:101950000868D35CD840704700380240140D010875
:101960002C0000200E4B0F2202609A6802F0030246
:1019700042609A6802F0F00282609A6802F4E052D3
:10198000C2609B68DB0810B403F4E053054C0361AC
:1019900023685DF8044B03F00F030B60704700BF32
:1019A00000380240003C0240002858D090F83930FE
:1019B00070B503F0FF020446B3B32368354DE06809
:1019C0006168022284F83920AB421A6849D0B3F129
:1019D000804F52D0A5F57C45AB422AD005F58065F5
:1019E000AB4226D005F58065AB4222D005F578459F
:1019F000AB421ED005F57055AB4213D005F580659E
:101A0000AB420FD005F58065AB420BD0A5F59835FC
:101A1000AB4207D005F58065AB4203D005F5806584
:101A2000AB4232D125692DE080F838200DF0E0FD81
:101A3000C3E7A568266922F070022A43164D22F4F6
:101A400040723243AB421A60D862996201D1626936
:101A50001A6301225A61002084F8392070BD0120E8
:101A60007047A668256922F07002324322F4407262
:101A70002A431A60D8629962E9E7A668256922F0CC
:101A80007002324322F440722A431A60D86299628B
:101A9000DFE700BF00000140000401400368DA688E
:101AA00042F00102DA601A6842F001021A60002076
:101AB000704700BF704700BF002858D090F83930F9
:101AC00070B503F0FF020446B3B32368354DE068F8
:101AD0006168022284F83920AB421A6849D0B3F118
:101AE000804F52D0A5F57C45AB422AD005F58065E4
:101AF000AB4226D005F58065AB4222D005F578458E
:101B0000AB421ED005F57055AB4213D005F580658C
:101B1000AB420FD005F58065AB420BD0A5F59835EB
:101B2000AB4207D005F58065AB4203D005F5806573
:101B3000AB4232D125692DE080F83820FFF7BAFF9B
:101B4000C3E7A568266922F070022A43164D22F4E5
:101B500040723243AB421A60D862996201D1626925
:101B60001A6301225A61002084F8392070BD0120D7
:101B70007047A668256922F07002324322F4407251
:101B80002A431A60D8629962E9E7A668256922F0BB
:101B90007002324322F440722A431A60D86299627A
:101BA000DFE700BF0000014000040140036801229C
:101BB000186A02FA01F120EA010010B418621A6AE8
:101BC0000A4C1143A34219620AD0094A934207D032
:101BD0001A685DF8044B42F0010200201A60704759
:101BE0005A6C42F400425A64F2E700BF0000014020
:101BF00000040140036830B41A6A184D012404FA45
:101C000001F122EA01021A621A6A1A62AB4216D084
:101C1000134A934213D0196A41F21112114208D1AA
:101C2000196A40F24442114203D11A6822F00102BB
:101C30001A60012380F8393030BC00207047196ADF
:101C400041F211121142E6D1196A40F244421142A6
:101C5000E1D15A6C22F400425A64DCE700000140F2
:101C600000040140002800F08D8090F839302DE903
:101C7000F04103F0FF0205460C46002B3AD02B68DA
:101C80004D4EE8686968022285F839209A6822F08A
:101C900007029A60B3421A6876D0B3F1804F7FD0C2
:101CA000A6F57C46B3422AD006F58066B34226D01C
:101CB00006F58066B34222D006F57846B3421ED0C0
:101CC00006F57056B34213D006F58066B3420FD0C6
:101CD00006F58066B3420BD0A6F59836B34207D01E
:101CE00006F58066B34203D006F58066B3425FD145
:101CF0002E695AE080F838200DF026FCBFE7AE6868
:101D00002E4F22F0700232432E6922F44072324389
:101D1000BB421A60D862996201D16A691A634FF0B6
:101D2000010CC3F814C098689E69A769A16822696C
:101D3000D4F800E026F44078E66941EA0721120170
:101D4000E76842EA06223A43276A1E6A28F0030837
:101D500041EA080142EA07326769646821F47C417C
:101D600021F0FC0126F0AA0644EA071440EA0E001E
:101D70000A43344398609A6100201C6285F839C098
:101D8000BDE8F08101207047AF682E6922F0700233
:101D90003A4322F4407232431A60D8629962BCE737
:101DA000AF682E6922F070023A4322F44072324347
:101DB0001A60D8629962B2E7000001400004014055
:101DC0000368C1B104290DD11A6A22F010021A6207
:101DD0001A6A42F010021A621A6842F001021A608E
:101DE000002070471A6A22F001021A621A6A42F051
:101DF00001021A62E8E71A6A22F001021A621A6AFC
:101E000042F001021A62E7E790F83830012B00F047
:101E1000D280F0B50223012480F8384080F83930B0
:101E20000C2A36D8DFE802F0073535356C35353504
:101E30009A3535353D000368D1F808E01D6A0F6812
:101E4000774E25F001051D621A6AD3F804C09C691B
:101E500022F0020224F07304B34242EA0E0244EA82
:101E6000070400F0AA806F4DAB4200F0A6804D68D9
:101E7000C3F804C09C615D631A629C690D6944F0FB
:101E800008049C61996921F0040199619A692A43C7
:101E90009A610023012280F8392080F838301846F2
:101EA000F0BD0368D1F808C01D6A0F685C4E25F4C8
:101EB00080551D621A6A5D68DC6922F4005224F4C0
:101EC000E644B34242EA0C3244EA072400F092802E
:101ED00006F58066B34200F08D804E685D60DC617F
:101EE0001E641A62DC690D6944F40064DC61D9691E
:101EF00021F48061D961DA6942EA0522DA61C8E732
:101F00000368D1F808E01D6A0F68454E25F01005FA
:101F10001D621A6AD3F804C09C6922F0200224F4DE
:101F2000E644B34242EA0E1244EA072453D03D4D40
:101F3000AB4250D04D68C3F804C09C619D631A62E7
:101F40009C690D6944F400649C61996921F4806185
:101F500099619A6942EA05229A619AE70368D1F881
:101F600008E01D6A0F682E4E25F480751D621A6AFE
:101F7000D3F804C0DC6922F4007224F07304B34285
:101F800042EA0E2244EA07043AD0264DAB4237D04B
:101F90004D68C3F804C0DC61DD631A62DC690D6959
:101FA00044F00804DC61D96921F00401D961DA69DF
:101FB0002A43DA616DE702207047D1E90556CF6800
:101FC00022F008022CF4407C3A43354322F004020C
:101FD00045EA0C0C4BE7D1E90556CF6822F08002A8
:101FE0002CF4406C42EA0712354322F040024CEADE
:101FF000850C9FE74E6925F4804545EA86156CE718
:10200000D1E90556CF6822F400622CF4405C42EA24
:102010000722354322F480624CEA051CB8E700BF72
:10202000000001400004014090F83830012B67D0D7
:1020300002220368F0B480F839209A680C6822F410
:102040007F4222F077020125402C80F838509A60B8
:1020500000F0938018D9702C7FD02BD9B4F5805F15
:1020600076D0B4F5005F1CD1D1E90152CC689968F3
:102070002A4342EA042221F47F410A439A609A6883
:1020800042F480429A600CE0102C42D02FD9202CD0
:1020900038D0302C05D19A6822F0700242F0370215
:1020A0009A600023012280F8392080F83830F0BC93
:1020B00018467047502C33D0602CF2D11C6A4D6802
:1020C000CE6824F010041C6299691A6A21F47041E8
:1020D00022F0A00242EA051241EA063199611A6231
:1020E0009A6822F0700242F067029A60D9E7002CE9
:1020F000D7D19A6822F0700242F007029A60D0E7C6
:10210000022070479A6822F0700242F027029A601B
:10211000C7E79A6822F0700242F017029A60C0E79F
:102120001D6A1E6A4C68CF6826F001061E629A6915
:1021300025F00A0122F0F00242EA071221439A61D7
:1021400019629A6822F0700242F057029A60A8E77A
:102150009A6822F007029A60A3E7D1E90152CC689D
:1021600099682A4342EA042221F47F410A439A6093
:102170009A6842F077029A6093E71D6A1E6A4C687B
:10218000CF6826F001061E629A6925F00A0122F046
:10219000F00242EA071221439A6119629A6822F01A
:1021A000700242F047029A607BE700BF704700BFB1
:1021B000704700BF704700BF704700BF03681A69CF
:1021C000910710B5044602D5DA6892075FD41A6900
:1021D000500702D5DA68510746D41A69120702D5AA
:1021E000DA6810072ED41A69D20602D5DA68D0064A
:1021F00018D41A69D10702D5DA68D2075DD41A69F2
:10220000100602D5DA6811065FD41A69520602D5A3
:10221000DA68500661D41A69910602D5DA68920626
:1022200043D410BD6FF010021A61DB69082213F469
:10223000407F2276204664D0FFF7BAFF0022236851
:102240002276D6E76FF008021A61DB69042299074B
:102250002276204652D1FFF7A9FF2046FFF7AAFFBA
:10226000002223682276BEE76FF004021A619B69A0
:10227000022213F4407F227620463CD1FFF796FFDE
:102280002046FFF797FF002223682276A5E76FF02C
:1022900002021A619B6901229B07027625D0FFF793
:1022A00087FF00222368227691E76FF02002204604
:1022B0001A61BDE8104000F051B86FF001021A61D8
:1022C00020460DF0EDF8236899E76FF080021A615F
:1022D000204600F045F8236897E76FF040021A6146
:1022E0002046FFF769FF236895E7FFF75FFF204669
:1022F000FFF760FFD5E7FFF75BFFC4E7FFF758FF85
:10230000AEE7FFF753FF2046FFF754FF96E700BF05
:1023100090F83830012B1ED002460220136870B4AA
:1023200082F839005C6824F07004D1E900565C60E2
:10233000586828435860986820F080009860996831
:102340000024012531439960204682F8395082F8F3
:10235000384070BC70470220704700BF704700BF14
:10236000704700BF002800F004812DE9F84390F881
:102370003930044603F0FF02002B00F0F58023689B
:102380002669242284F83920D86820F40050D4E942
:102390000225D8601969E06921F440512943196187
:1023A000D9686569324321F416412A4321F00C01B2
:1023B00002430A43DA605A69A16922F440720A436F
:1023C000B0F5004F5A61AA4A71D0934200F0D38011
:1023D00002F58062934200F0CE80FFF7A3FAA54F8A
:1023E000636800EB800000EB80009B00B0FBF3F320
:1023F000A7FB03235B091D01FFF794FA666800EB56
:10240000800000EB8000B600B0FBF6F6FFF78AFA1A
:10241000636800EB800000EB80009B00B0FBF3F3EF
:10242000A7FB03235B094FF0640909FB13631B013E
:102430003233A7FB03235B0903F0F006FFF772FAC0
:10244000626800EB800000EB80009300B0FBF3F8C3
:10245000FFF768FAD4E9002100EB80008B0000EB65
:102460008000B0FBF3F3A7FB03135B0909FB1383A5
:102470001B013233A7FB0313C3F3431333432B4432
:102480009360136923F490431361536923F02A0383
:102490005361D3680025202143F40053D3602846BC
:1024A000E56384F8391084F83A10BDE8F883934264
:1024B00000F09F8002F58062934200F09A80FFF75F
:1024C00031FA6C4F636800EB800000EB80005B002A
:1024D000B0FBF3F3A7FB03235B091E01FFF722FA0E
:1024E000656800EB800000EB80006D00B0FBF5F547
:1024F000FFF718FA636800EB800000EB80005B00D8
:10250000B0FBF3F3A7FB03235B094FF0640909FB5E
:102510001353DB003233A7FB03231B0903F4F875C5
:10252000FFF700FA626800EB800000EB80005300C8
:10253000B0FBF3F8FFF7F6F9D4E9002100EB8000D7
:102540004B0000EB8000B0FBF3F3A7FB03135B0928
:1025500009FB1383DB003233A7FB0313C3F34213DE
:1025600033442B4493608CE780F838200DF096F8C4
:1025700005E701207047FFF7E5F93E4F636800EB80
:10258000800000EB80009B00B0FBF3F3A7FB03236C
:102590005B091D01FFF7D6F9666800EB800000EBD0
:1025A0008000B600B0FBF6F6FFF7CCF9636800EBED
:1025B000800000EB80009B00B0FBF3F3A7FB03233C
:1025C0004FF064095B0909FB13631B013233A7FB5E
:1025D00003235B0903F0F006FFF7B4F9626800EB30
:1025E0008000930000EB8000B0FBF3F8FFF7AAF93E
:1025F00030E7FFF7A7F91F4F636800EB800000EB9F
:1026000080005B00B0FBF3F3A7FB03235B091E0113
:10261000FFF798F9656800EB800000EB80006D0023
:10262000B0FBF5F5FFF78EF9636800EB800000EB77
:1026300080005B00B0FBF3F3A7FB03234FF06409BA
:102640005B0909FB1353DB003233A7FB03231B0990
:1026500003F4F875FFF776F9626800EB8000530029
:1026600000EB8000B0FBF3F8FFF76CF964E700BF04
:10267000001001401F85EB51F0B50E4690F839105F
:10268000202983B02DD1002E2ED0019262B31F4697
:1026900090F83830012B044623D00023C363012176
:1026A000212380F8381080F83930FDF787FF019A30
:1026B000A284E28422680546E38C9BB2002B39D0C9
:1026C000E08CA168013880B2B1F5805FE08419D058
:1026D000781C3BD110680106FCD533785360013675
:1026E000EAE7022003B0F0BD012003B0F0BD13689B
:1026F0001B060CD4002F33D0FDF760FF401B874230
:1027000022682DD3781CF2D110680106FCD53388DD
:102710002169C3F3080353600029E0D10236CBE7F7
:1027200013685B060BD4DFB1FDF748FF401B8742FF
:10273000226815D3781CF3D113685906FCD52023E1
:10274000002084F8393084F83800CBE713681B0682
:10275000C3D42FB1FDF732FF401B87422268B7D2A6
:10276000D36823F4D073D3605369202123F001038D
:1027700000250320536184F8391084F8385084F818
:102780003A1003B0F0BD00BF08B501F0FBF800201F
:1027900008BD00BFEFF305830BB901F0CDB901F01F
:1027A000D1B900BF30B5B0F9084085B0842C0246DD
:1027B00014BF0334002403AD0B4640681168128A2D
:1027C000CDE9004500F058FF01280CBF0398002018
:1027D00005B030BD08B501F067F8002008BD00BFA6
:1027E000012000F0AFBB00BF10B582B000240194FF
:1027F00010B30A46EFF305833BB9194600F0C2FC5B
:10280000012816D1002002B010BD01AA214600F017
:1028100041FE01280DD1019B002BF3D0084B4FF056
:1028200080521A60BFF34F8FBFF36F8F204602B004
:1028300010BDFF2002B010BD802002B010BD00BF4F
:1028400004ED00E010B582B000240194EFF305839D
:102850004BB101A900F040FC01280AD1019B5BB9F2
:10286000002002B010BD1A46194600F0ADF901284B
:10287000F6D0FF2002B010BD054B4FF080521A6019
:10288000BFF34F8FBFF36F8F204602B010BD00BF64
:1028900004ED00E0012910B50DD108460322002106
:1028A00000F04EF9044620B100231A46194600F004
:1028B0008BF9204610BD0024204610BD10B582B013
:1028C0000024019410B30A46EFF305833BB919467F
:1028D00000F058FC012816D1002002B010BD01AA5A
:1028E000214600F0D7FD01280DD1019B002BF3D02C
:1028F000084B4FF080521A60BFF34F8FBFF36F8FBA
:10290000204602B010BDFF2002B010BD802002B0F2
:1029100010BD00BF04ED00E010B582B000240194AA
:10292000EFF305834BB101A900F0D6FB01280AD1D2
:10293000019B5BB9002002B010BD1A46194600F099
:1029400043F90128F6D0FF2002B010BD054B4FF02F
:1029500080521A60BFF34F8FBFF36F8F204602B0D3
:1029600010BD00BF04ED00E010B5EFF305841CB905
:1029700000F00AFE204610BD822010BD0022D0E9E2
:10298000000100F0DDB800BF10B584B00024019153
:10299000A24208BF01220394EFF305835BB12346F3
:1029A00003AA01A900F002FB012809D1039B53B936
:1029B000002004B010BD01A900F006F90128F7D0ED
:1029C000FF2004B010BD054B4FF080521A60BFF3DA
:1029D0004F8FBFF36F8F204604B010BD04ED00E0B1
:1029E00030B585B0002303910446029369B3009388
:1029F000EFF305839BB9084602A9154600F0C2FB18
:102A000001282DD0002D0CBF00234023019304ABDF
:102A100013E9070084E80700204605B030BD6A4688
:102A2000084602A900F036FD009B01280CBF1022C9
:102A300000220192002BEAD00B4B4FF080521A601B
:102A4000BFF34F8FBFF36F8FE1E704AB802243F8F2
:102A50000C2D93E8070084E80700204605B030BD40
:102A600010230193D3E700BF04ED00E008B501F0A7
:102A7000D1FA012803D0BDE8084001F043BC08BDED
:102A8000EFF305830BB900F05FBD00F071BD00BF2F
:102A900010B5EFF305841CB900F076FD204610BD9B
:102AA000822010BD00F108034FF0FF310022816049
:102AB000C0E90023C0E90333704700BF002303616E
:102AC000704700BFD0E9002310B49C688C609C68FC
:102AD0004B600132616099605DF8044B08610260EF
:102AE000704700BF30B40D686B1C11D000F10802B4
:102AF00000E01A4653681C68AC42FAD904684B607F
:102B0000013499608A6051600861046030BC70478C
:102B100002695368F2E700BF43688168026910B434
:102B20009960816854684B601368844208BF5160A3
:102B3000013B002101615DF8044B136018467047AA
:102B400040B94FF0500383F31188BFF36F8FBFF389
:102B50004F8FFEE770B506460D4651B101FB00F000
:102B6000483001F0C3FC044658B300F14803036049
:102B700005E0482001F0BAFC044610B32460C4E923
:102B80000F6501F057FBD4E90F132268A26001FB27
:102B900003F1CB1A134400200A44FF21A063E36031
:102BA00084F84410626084F8451004F11000FFF7C7
:102BB00079FF04F12400FFF775FF01F05DFB20466B
:102BC00070BD0024204670BD2DE9F04F85B0019204
:102BD000002800F02281002900F01281022B0BD185
:102BE000C26B012A08D04FF0500383F31188BFF362
:102BF0006F8FBFF34F8FFEE704461E460F4601F06E
:102C000009FA002840F0F980019B43B14FF05003CE
:102C100083F31188BFF36F8FBFF34F8FFEE79A46A0
:102C200001F008FBA26BE36BDFF814939A424FF0BC
:102C3000000875D3022E00F0F980019D002D00F0F0
:102C40004C81BAF1000F02D102A801F08BF901F01A
:102C500013FB00F067FF01F0EDFA94F84430FF2B0E
:102C600008BF84F8448094F84530FF2B08BF84F8EF
:102C7000458001F001FB01A902A801F087F90028B5
:102C800040F0118101F0D6FAA26BE36B9A4267D053
:102C900001F0F2FA01F0CEFA94F845506DB2002D31
:102CA00011DD636A7BB104F1240A01E0636A53B168
:102CB000504601F01BF908B101F0A4F9013DEBB257
:102CC0005DB2002BF2D1FF2384F8453001F0D4FA35
:102CD00001F0B0FA94F844506DB2002D11DD236973
:102CE0007BB104F1100A01E0236953B1504601F0B1
:102CF000FDF808B101F086F9013DEBB25DB2002BA1
:102D0000F2D1FF2384F8443001F0B6FA00F0A4FFBA
:102D100001F090FAA26BE36B9A424FF0010A89D25C
:102D2000226CA56B002A00F08680002E00F0A180A6
:102D30003946E0680DF01BF8236CE26821685B42BD
:102D40001A448A42E26002D262681344E360022EAF
:102D5000636A00F0C6800135A563002B71D09BE04B
:102D600004F1100A01F088FA5046019901F07CF84C
:102D700001F060FA94F845506DB2002D11DD636AE0
:102D80007BB104F1240B01E0636A53B1584601F0B2
:102D9000ADF808B101F036F9013DEBB25DB2002BA0
:102DA000F2D1FF2384F8453001F066FA01F042FACF
:102DB00094F844506DB2002D0ADC0CE0504601F04E
:102DC00095F808B101F01EF9013DEBB25DB213B107
:102DD0002369002BF2D1FF2384F8443001F04CFA30
:102DE00000F03AFF002893D14FF08053C9F800302B
:102DF000BFF34F8FBFF36F8F8AE74FF0000A0FE7E3
:102E0000026C002A3FF4EAAE4FF0500383F31188BE
:102E1000BFF36F8FBFF34F8FFEE74FF0500383F385
:102E20001188BFF36F8FBFF34F8FFEE7226CA56B46
:102E3000002A7FF47DAF2668013546B1636AA56339
:102E400053BB01F019FA012005B0BDE8F08F6068AE
:102E500001F036F9636A6660A563EBB90028F0D02B
:102E6000374B4FF080521A60BFF34F8FBFF36F8F15
:102E7000E7E73946A0680CF07AFFA368216C626826
:102E80000B44934205F10105A360D7D3636A22681E
:102E9000A563A260002BD4D004F1240001F026F831
:102EA0000028DDD1CDE701F0C5F994F845506DB2A9
:102EB000002D1DDD636ADBB104F1240605E0013D50
:102EC000EBB25DB2A3B1636A93B1304601F00EF884
:102ED0000028F4D001F096F8F1E701F0CDF928468A
:102EE000B2E7002DABD10122A263002BA9D0D3E71A
:102EF000FF2384F8453001F0BFF901F09BF994F805
:102F000044506DB2002D12DD236983B104F1100627
:102F100005E0013DEBB25DB24BB123693BB13046F8
:102F200000F0E4FF0028F4D001F06CF8F1E7FF2393
:102F300084F8443001F0A0F900F08EFE002083E711
:102F400004ED00E070B5482001F0D0FA044650B31B
:102F5000002501232060C0E90F3501F06BF9D4E9A9
:102F60000F322168A56303FB02F39A1A0A440B444B
:102F7000FF26C4E90131E26084F8446004F11000E6
:102F800084F84560FFF78EFD04F12400FFF78AFD09
:102F900001F072F9C4E90055E5602B462A4629463E
:102FA0002046FFF711FE204670BD00BF002837D035
:102FB0002DE9F04741B3022B0BD1C46B012C08D093
:102FC0004FF0500383F31188BFF36F8FBFF34F8F20
:102FD000FEE704461F4691468A4601F035FAEFF3B4
:102FE00011884FF0500383F31188BFF36F8FBFF345
:102FF0004F8FA26BE36B9A421BD3022F34D0002079
:1030000088F31188BDE8F087046C002CD3D04FF012
:10301000500383F31188BFF36F8FBFF34F8FFEE729
:103020004FF0500383F31188BFF36F8FBFF34F8FBF
:10303000FEE794F84550226CA66B6DB2DAB16FB31F
:103040005146E0680CF093FE236CE26821685B4215
:103050001A448A42E26002D262681344E360022F9B
:103060000FD176B1013E0CE094F84550226CA66B6E
:103070006DB2002AE4D127681FB9606801F020F81A
:10308000676001366B1CA66316D06B1C5BB284F8BC
:103090004530012088F31188BDE8F0875146A068CB
:1030A0000CF065FEA368216C62680B449342A36038
:1030B000E7D32368A360E4E7636A002BE9D004F157
:1030C000240000F013FF0028E3D0B9F1000FE0D096
:1030D0000120C9F8000093E770B3036C43B14FF0CF
:1030E000500383F31188BFF36F8FBFF34F8FFEE759
:1030F000036853B370B504460D4601F0A5F9EFF32C
:1031000011864FF0500383F31188BFF36F8FBFF325
:103110004F8FA26BE36B934231D994F84530013263
:103120005BB2A2635A1C1CD001335BB284F84530F9
:10313000012086F3118870BD4FF0500383F311888E
:10314000BFF36F8FBFF34F8FFEE74368002BD1D0E3
:103150004FF0500383F31188BFF36F8FBFF34F8F8E
:10316000FEE7636A002BE3D004F1240000F0BEFE0A
:103170000028DDD0002DDBD001202860D9E7002019
:10318000D7E700BF2DE9F04F85B00192002800F08D
:103190005881002900F04881044698460F4600F007
:1031A00039FF50B9019B43B14FF0500383F31188AD
:1031B000BFF36F8FBFF34F8FFEE701F03BF8A56BB6
:1031C000002D40F0BA80019B002B6AD002A800F0CD
:1031D000C9FEDFF8BCB2AA4604F1240601F04CF89F
:1031E00000F0A0FC01F026F894F84430FF2B08BF53
:1031F00084F844A094F84530FF2B08BF84F845A01C
:1032000001F03AF801A902A800F0C0FE00284ED152
:1032100001F010F8A36B002B00F0B98001F02CF83E
:1032200001F008F894F845506DB2002D0ADC0CE06E
:10323000304600F05BFE08B100F0E4FE013DEBB269
:103240005DB213B1636A002BF2D1FF2384F84530DD
:1032500001F012F800F0EEFF94F844506DB2002D2A
:1032600010DD236973B104F11009484600F03EFEF9
:1032700008B100F0C7FE013DEBB25DB213B12369A6
:10328000002BF2D1FF2384F8443000F0F5FF00F06A
:10329000E3FC00F0CFFFA56B002D4ED1019B002B6E
:1032A0009CD100F0E9FF002005B0BDE8F08F00F0F0
:1032B000C1FF94F845506DB2002D0ADC0CE0304699
:1032C00000F014FE08B100F09DFE013DEBB25DB2CE
:1032D00013B1636A002BF2D1FF2384F8453000F06C
:1032E000CBFF00F0A7FF94F844506DB2002D11DD24
:1032F00023697BB104F1100901E0236953B1484609
:1033000000F0F4FD08B100F07DFE013DEBB25DB2CE
:10331000002BF2D1FF2384F8443000F0ADFF00F021
:103320009BFC00F087FFA36B002BBAD000F0A4FF3A
:1033300000F080FFA56B002DB0D0226CE66852B182
:103340006168B3188B42E36024BF2368E3603846AA
:10335000E1680CF00CFDB8F1000F40F083802368A9
:10336000013DA563002B00F086802369002B7CD0F3
:1033700004F1100000F0BAFD002876D0444B4FF065
:1033800080521A60BFF34F8FBFF36F8F6DE000F074
:1033900073FF2368002B5DD00199304600F064FD77
:1033A00000F048FF94F845506DB2002D0ADC0CE0A7
:1033B000304600F09BFD08B100F024FE013DEBB269
:1033C0005DB213B1636A002BF2D1FF2384F845305C
:1033D00000F052FF00F02EFF94F844506DB2002D23
:1033E00010DD236973B104F11009484600F07EFD39
:1033F00008B100F007FE013DEBB25DB213B12369E5
:10340000002BF2D1FF2384F8443000F035FF00F0A8
:1034100023FC00288CD14FF08053CBF80030BFF351
:103420004F8FBFF36F8F83E7026C002A3FF4B4AE77
:103430004FF0500383F31188BFF36F8FBFF34F8FAB
:10344000FEE74FF0500383F31188BFF36F8FBFF394
:103450004F8FFEE700F0EEFE606800F0EBFD00F03D
:103460000BFF99E7636AE6604BB900F005FF0120A6
:1034700005B0BDE8F08F00F075FE606075E704F1FF
:10348000240000F033FD00287FF478AFEDE700BFA3
:1034900004ED00E02DE9F843B8B1002937D0044627
:1034A0009046894600F0D0FFEFF311874FF05003AC
:1034B00083F31188BFF36F8FBFF34F8FA56B6DB987
:1034C000284687F31188BDE8F8834FF0500383F353
:1034D0001188BFF36F8FBFF34F8FFEE794F84460FE
:1034E000226C76B252B1E168636811449942E1609E
:1034F00024BF2168E16048460CF039FC013D731C93
:10350000A56310D0731C5BB284F844300DE0036CEB
:10351000002BC4D04FF0500383F31188BFF36F8F9B
:10352000BFF34F8FFEE723690BB90120C9E704F110
:10353000100000F0DBFC0028F7D0B8F1000FF4D049
:103540000120C8F80000BCE740B94FF0500383F3F6
:103550001188BFF36F8FBFF34F8FFEE710B504469E
:1035600000F068FEA46B00F087FE204610BD00BF8F
:1035700008B1806B70474FF0500383F31188BFF39D
:103580006F8FBFF34F8FFEE7E0B11F4B5A68904239
:103590002DD0DA68904234D05A6990422FD0DA693F
:1035A00090422AD05A6A904225D0DA6A904220D0BE
:1035B0005A6B90420FD0DA6B904208BF07220BD0B3
:1035C00001F010B84FF0500383F31188BFF36F8FF1
:1035D000BFF34F8FFEE7062210B403EBC2040021B5
:1035E000616043F832105DF8044B00F0FBBF00222D
:1035F000F2E70522F0E70422EEE70322ECE70222DD
:10360000EAE70122E8E700BFE0280120F8B5184CFE
:10361000256863680646181D0F46FFF77DFA38B91E
:103620006268A368D16A01228A4023EA0203A36088
:10363000731C14D06368AD195D6009D2606A61685B
:103640000431FFF74FFAA36AAB4288BFA562F8BD09
:10365000206A6168BDE8F8400431FFF743BA002FE3
:10366000E8D0616803480431BDE8F840FFF72ABAA2
:10367000B0000020BC0000202DE9F84F96008046E5
:1036800030460D4699460B9F00F030FF002800F0B1
:1036900001818246542000F029FF0446002800F0F2
:1036A000CD80C0F830A032465046A5210CF06AFB10
:1036B0002A78236B84F83420043E2A781E4426F0AE
:1036C000070A002A4DD06B7884F835306B78002BD0
:1036D00047D0AB7884F83630AB78002B41D0EB780C
:1036E00084F83730EB78002B3BD02B7984F83830D6
:1036F0002B79002B35D06B7984F839306B79002B1E
:103700002FD0AB7984F83A30AB7953B3EB7984F8A6
:103710003B30EB792BB32B7A84F83C302B7A03B314
:103720006B7A84F83D306B7ADBB1AB7A84F83E304B
:10373000AB7AB3B1EB7A84F83F30EB7A8BB12B7B69
:1037400084F840302B7B63B16B7B84F841306B7B1A
:103750003BB1AB7B84F84230AB7B13B1EB7B84F89D
:1037600043300A9D062D28BF06254FF0000B261D6D
:10377000E5626564304684F843B0C4F848B0FFF7AA
:103780009DF9C5F1070504F11800FFF797F9C4F892
:103790004CB0A561246184F850B064624A46414649
:1037A000504600F01DFD206007B13C603B4D00F02D
:1037B00041FDEB6A0133EB626B68002B36D0D5F824
:1037C0000C21E36A62B305F13008AA68012707FA01
:1037D00003FC03EB830308EB83004CEA0203D5F8F8
:1037E0001021AB603A443146C5F81021FFF76AF961
:1037F00000F042FDD5F80C317BB16A68E36AD26A09
:103800009A420AD2264B4FF080521A60BFF34F8F74
:10381000BFF36F8F3846BDE8F88F3846BDE8F88FA4
:103820006A68D26A9A4298BF6C60CCE76C60EB6AB7
:10383000012B0AD0E36A05F13008C6E7504600F0D4
:10384000D1FE4FF0FF30BDE8F88F05F13008474654
:1038500005F1BC0938461437FFF724F94F45F9D173
:10386000DFF84090A9F11400FFF71CF94846FFF774
:1038700019F909F11400FFF715F909F12800FFF70C
:1038800011F9A9F1C400FFF70DF96F62E36AC5F8F9
:1038900020909AE74FF0FF30C0E700BFB000002053
:1038A00004ED00E08001002070B50546324C00F0C8
:1038B000C1FC002D44D02E1D3046FFF72DF930B944
:1038C000E96A01EB810304EB83031B6B2BB3AB6A47
:1038D0001BB105F11800FFF71FF9D4F81031626829
:1038E0000133AA42C4F8103132D0E36A286B013B9D
:1038F000E36200F077FE284600F074FE636A1B68FE
:1039000003BB4FF0FF33A36200F0B6FCD4F80C31D8
:1039100013B16368AB4207D070BDA36801228A402F
:1039200023EA0203A360D2E7D4F81831D3B14FF0F1
:10393000500383F31188BFF36F8FBFF34F8FFEE700
:103940006568B8E7636ADB68DB685B68A362DBE72E
:1039500031460A48FFF7B6F8D4F814310133C4F8F9
:103960001431D1E7064B4FF080521A60BFF34F8FEE
:10397000BFF36F8F70BD00BFB0000020A801002012
:1039800004ED00E02DE9F8434FF4007000F0AEFDC7
:10399000002800F08D800446542000F0A7FD054665
:1039A000002800F08280A52104634FF400722046B5
:1039B0000CF0E8F92B6B564A6A6300242F1D03F5BF
:1039C000FE7385F8384085F84340EC62C5E9114440
:1039D000384623F00706FFF771F805F11800FFF7E6
:1039E0006DF80723EC642246AB6185F850404949E5
:1039F0002D6130466D6200F0F3FB474C2860C4F83F
:103A0000205100F017FCE36A0133E3626368002B86
:103A100043D0D4F80C31E86A23B96368DB6A834287
:103A200098BF656004F13006D4F808C0D4F81031AE
:103A30000122824000EB8000013342EA0C02394649
:103A400006EB8000C4F81031A260FFF73BF800F0ED
:103A500013FCD4F80C3163B16268EB6AD26A9A4203
:103A600007D22E4B4FF080521A60BFF34F8FBFF337
:103A70006F8F4FF0500383F31188BFF36F8FBFF345
:103A80004F8F00234FF0FF310122A162C4F80C21B7
:103A90002360BDE8F84300F061BC6560E36A012B78
:103AA0000FD0E86A04F13006BEE7204600F09AFD28
:103AB0004FF0500383F31188BFF36F8FBFF34F8F25
:103AC000FEE704F13006B04604F1BC09404608F1B7
:103AD0001408FEF7E7FFC145F8D1DFF84480A8F1EC
:103AE0001400FEF7DFFF4046FEF7DCFF08F114008C
:103AF000FEF7D8FF08F12800FEF7D4FFA8F1C400B4
:103B0000FEF7D0FFC4F82490E86AC4F820808BE761
:103B100049444C458D3D0008B000002004ED00E014
:103B200080010020034AD2F818310133C2F818315D
:103B3000704700BFB0000020014B1868704700BFFD
:103B4000B000002008B500F07FFC014B186808BDEC
:103B5000B00000202DE9F0473D4CD4F8183193B95E
:103B6000266801362660E6B1A36AB34226D900254D
:103B70006368DB6A03EB830304EB83031B6B022B99
:103B800028BF012505E0D4F828310133C4F82831D5
:103B90000025D4F81C31002B0CBF28460120BDE8BD
:103BA000F087636A1B68002B3CD04FF0500383F30F
:103BB0001188BFF36F8FBFF34F8FFEE7DFF894A03C
:103BC00000254FF0010923E0636ADB68DF687B684A
:103BD00007F104089E42404622D3FEF79DFFBB6AD0
:103BE00007F118000BB1FEF797FFF86AA26809FA0F
:103BF00000F300EB8000134341460AEB8000A36012
:103C0000FEF760FF6368FA6ADB6A9A4228BF012503
:103C1000636A1B68002BD7D14FF0FF33A362A7E77D
:103C2000A362A5E7636A226A62622362D4F8243140
:103C30000133C4F82431636A1B681BB94FF0FF33AA
:103C4000A36291E7636ADB68DB685B68A3628BE76A
:103C5000B0000020E00000202DE9F041364CD4F8FF
:103C6000183143B94FF0500383F31188BFF36F8FBE
:103C7000BFF34F8FFEE700F0DDFAD4F81831013BB7
:103C8000C4F81831D4F8185145BBE36A33B30126A0
:103C900004F13007D4F8E43033B3D4F8F030DD6801
:103CA00005F1040805F11800FEF736FF4046FEF75F
:103CB00033FFE86AA26806FA00F300EB80001343C2
:103CC000414607EB8000A360FEF7FCFE6368EA6AEA
:103CD000DB6A9A42DED3C4F81C61DBE7002400F003
:103CE000CBFA2046BDE8F0812DB1636A1B68EBB9C1
:103CF0004FF0FF33A362D4F828514DB10126FFF7EE
:103D000029FF08B1C4F81C61013DF8D1C4F828515D
:103D1000D4F81C31002BE1D0084B4FF080521A60D0
:103D2000BFF34F8FBFF36F8F0124D8E7636ADB685F
:103D3000DB685B68A362DEE7B000002004ED00E012
:103D400008B5B0B10F4BD3F8181141B14FF0500383
:103D500083F31188BFF36F8FBFF34F8FFEE7D3F864
:103D600018210132C3F81821FFF750FCFFF774FF48
:103D700038B9054B4FF080521A60BFF34F8FBFF335
:103D80006F8F08BDB000002004ED00E080B51A4C34
:103D90001A4F4FF0805609E0D4F81831D4F8F85093
:103DA0000133C4F81831FFF757FF65B9D4F814315F
:103DB000002BF1D1236B012BF8D93E60BFF34F8F5D
:103DC000BFF36F8FF2E700F035FAD4F80431DD6805
:103DD000281DFEF7A1FEE36A013BE362D4F814312B
:103DE000013BC4F8143100F047FA286B00F0FAFBED
:103DF000284600F0F7FBD9E7B000002004ED00E012
:103E0000184AD2F81831D3B910B4C2F81C319368EB
:103E1000B3FA83F3DBB2C3F11F0303EB8301890021
:103E20005418206B78B1606B11444068606338317E
:103E3000884211D0C36853605DF8044B704701237A
:103E4000C2F81C3170474FF0500383F31188BFF361
:103E50006F8FBFF34F8FFEE7142101FB03234068F0
:103E60005863E7E7B000002040B94FF0500383F3F8
:103E70001188BFF36F8FBFF34F8FFEE770B5194CFA
:103E80000D4661681831FEF72DFE26686068043023
:103E9000FEF742FE38B96268A368D16A01228A40FF
:103EA00023EA0203A3606B1C0DD06368AD195D604B
:103EB00010D2606A61680431FEF714FEA36A9D4265
:103EC00038BFA56270BD616807480431BDE8704025
:103ED000FEF7F8BD206A6168BDE870400431FEF766
:103EE00001BE00BFB0000020BC000020F8B5C368D0
:103EF000DD682DB305F11806194C3046FEF70CFEAF
:103F0000D4F818312BBB2E1D3046FEF705FEE86AAB
:103F1000A7680123834004F1300200EB80003B439B
:103F2000314602EB8000A360FEF7CCFD6368EA6ACD
:103F3000DB6A9A4286BF0120C4F81C010020F8BD4C
:103F40004FF0500383F31188BFF36F8FBFF34F8F90
:103F5000FEE7314604F1E400FEF7B4FDE6E700BFFA
:103F6000B000002030B1084BD3F824211B68C0E911
:103F7000002370474FF0500383F31188BFF36F8F16
:103F8000BFF34F8FFEE700BFB0000020F8B550B37D
:103F900001B30D46044600F04DF92B68184A591C30
:103FA000106829D0D4E90071D2F82461B74201D059
:103FB000884223D2461AB34220D91B1A0B44D2F8A6
:103FC000241112682B60C4E90012002500F054F996
:103FD0002846F8BD4FF0500383F31188BFF36F8F6D
:103FE000BFF34F8FFEE74FF0500383F31188BFF309
:103FF0006F8FBFF34F8FFEE70025E7E70125E5E769
:10400000B0000020024B0122C3F81C21704700BF02
:10401000B0000020064BD3F80C2132B1D3F8183190
:10402000002B0CBF0220002070470120704700BF0A
:10403000B0000020D0B1F8B51F4CC36A6268D26AE4
:10404000934212D28269002A04DB6268D26AC2F10A
:1040500007028261194D426903EB830305EB830379
:104060009A4204D06368DB6AC362F8BD7047071DDB
:1040700006463846FEF750FD68B9F26A02EB820345
:1040800004EB83031B6B33B9A368012101FA02F22D
:1040900023EA0202A2606368A268D86AF062012380
:1040A0008340134300EB8000394605EB8000A3609A
:1040B000BDE8F840FEF706BDB0000020E00000209B
:1040C00068B1F8B5254D6B6883420AD04FF05003B4
:1040D00083F31188BFF36F8FBFF34F8FFEE700208C
:1040E00070479B6C43B94FF0500383F31188BFF3C3
:1040F0006F8FBFF34F8FFEE7C16A426C013B914265
:10410000836400D00BB10020F8BD071D044638467B
:10411000FEF702FD58B9E16A142303FB01531B6B40
:104120002BB9AB6801228A4023EA0203AB60636CBF
:104130000B4AD5F808C0E3620126142000FB0320D7
:1041400006FA03F2C3F1070342EA0C023946A361FF
:10415000AA60FEF7B7FC3046F8BD00BFB0000020F3
:10416000E0000020044B5A681AB159688A6C013289
:104170008A645868704700BFB00000200A4B1B6873
:10418000013308D04FF0500383F31188BFF36F8FD2
:10419000BFF34F8FFEE74FF0500383F31188BFF357
:1041A0006F8FBFF34F8FFEE70800002006480068BE
:1041B000006880F3088862B661B6BFF34F8FBFF323
:1041C0006F8F00DF00BF000008ED00E0DFF80C009B
:1041D000016841F4700101607047000088ED00E063
:1041E00030B421F001014FF08075074C40F80C4CC1
:1041F0006FF0020340F8202C40E9021540F8243CFF
:1042000030BC4438704700BF7D410008000000000A
:10421000074B19680868B0E8F04F80F30988BFF3CE
:104220006F8F4FF0000080F311887047AFF300806C
:10423000B40000204FF0500383F31188BFF36F8F59
:10424000BFF34F8F0A4A13680133012B136000D06C
:104250007047084B1B6813F0FF0FF9D04FF0500365
:1042600083F31188BFF36F8FBFF34F8FFEE700BF5B
:104270000800002004ED00E0084A136843B94FF03D
:10428000500383F31188BFF36F8FBFF34F8FFEE7A7
:10429000013B13600BB983F31188704708000020BD
:1042A000EFF30980BFF36F8F154B1A681EF0100FE4
:1042B00008BF20ED108A20E9F04F10604DF8043D52
:1042C0004FF0500080F31188BFF34F8FBFF36F8F13
:1042D000FFF796FD4FF0000080F3118808BC1968C5
:1042E0000868B0E8F04F1EF0100F08BFB0EC108A5D
:1042F00080F30988BFF36F8F704700BFAFF3008072
:10430000B400002008B54FF0500383F31188BFF3C9
:104310006F8FBFF34F8FFFF71DFC18B1034B4FF0AA
:1043200080521A60002383F3118808BD04ED00E079
:10433000064B07491B680748074AA1FB03139B0963
:10434000013B072103601160704700BF2C00002073
:10435000D34D621014E000E010E000E0324B334A2D
:10436000196891424DD01A68314B9A4252D010B51B
:10437000304A314B117882B0FF20C9B201911070E0
:104380001278D2B28DF803209DF803209DF8031017
:1043900002F05002072009061A7058600FD5062156
:1043A00000E001469DF803205200D2B28DF80320B0
:1043B0009DF80320120601F1FF30F2D459600198F4
:1043C0001C4C1E495A68C0B22070086840F4700046
:1043D00008600868120240F07040086002F4E06271
:1043E0005A60FFF7A5FF164B00221A60FFF7EEFE9A
:1043F000144A136843F040431360FFF7D7FEFFF7FA
:10440000BDFE4FF0500383F31188BFF36F8FBFF3EE
:104410004F8FFEE74FF0500383F31188BFF36F8F88
:10442000BFF34F8FFEE700BF00ED00E071C20F4108
:1044300070C20F4100E400E0DC01002020ED00E04C
:104440000800002034EF00E0EFF305820F2A11D8B6
:10445000104B11495A680B6803F4E063934208D982
:104460004FF0500383F31188BFF36F8FBFF34F8F6B
:10447000FEE770470949074B525C19789142E8D929
:104480004FF0500383F31188BFF36F8FBFF34F8F4B
:10449000FEE700BFDC0100200CED00E0F0E300E0EF
:1044A000114B30B41D461A68824201D21346FAE716
:1044B0005C681919884203D1416821445960184643
:1044C000446801198A4208D1A9688A4205D0D2E914
:1044D000002121440260416000E00260984218BF60
:1044E000186030BC704700BFE4010020F8B53A4DB9
:1044F0000446FFF717FBAA68002A53D0EE6834423F
:104500004BD1002C49D004F1080358071CBF23F0FD
:1045100007030833002B40D06F699F423DD32C68BE
:104520002D4806E0D4F800C0BCF1000F04D02046AE
:10453000644661689942F5D394422ED022680260A5
:10454000CA1A102A10D9E018410708D04FF05003BA
:1045500083F31188BFF36F8FBFF34F8FFEE7426085
:104560006360FFF79DFF61682A697F1A002331436A
:104570009742C4E9003104F1080438BF2F616F612C
:10458000FFF76AFB63070BD04FF0500383F31188EA
:10459000BFF36F8FBFF34F8FFEE7FFF75DFB002484
:1045A0002046F8BD0D4B0E4A5E0718BF073322F0B8
:1045B000070218BF23F007032B6018460027D31A01
:1045C0004FF00046C5E90172C5E90433C2E900773E
:1045D000EE60C0E9002392E7E4010020FC01002026
:1045E000EC260120D8B138B5174D50F8043CEA68E4
:1045F000134208D14FF0500383F31188BFF36F8F3C
:10460000BFF34F8FFEE750F8081C49B14FF050033D
:1046100083F31188BFF36F8FBFF34F8FFEE77047AF
:10462000044623EA020340F8043CFFF77BFA6A6978
:1046300054F8043CA4F1080013446B61FFF730FF09
:10464000BDE83840FFF708BBE401002030B587B073
:1046500090B10C46034600F10C02292501A90B4834
:1046600001938DF80C408DF80D5001F079FE08B9DA
:104670009DF9080007B030BD054B064906484FF4C8
:104680004A720BF087FB6FF00F00F3E74D600008F4
:104690001C0D0108500D01086C0D010870B50D4688
:1046A00086B0114601F032F9044670B106A900F156
:1046B0000C0641F8140D324621488DF80C5001F0DB
:1046C0004FFE28B99DF9083013B9204606B070BDD9
:1046D00063682BB11B4B1C491C4889220BF05AFB09
:1046E00004F11005284609F0ADFD10B304F11400E3
:1046F00009F0A8FDB0B9304609F0EEFD58B13046DA
:1047000009F0E6FD284609F049FD2146072002F0A0
:1047100009F90024D9E70B4B0D490C488F220BF007
:1047200039FBECE7074B0B4908488C220BF032FBB6
:10473000E1E7044B084905488A220BF02BFBD5E73B
:10474000595800081C0D0108940D01086C0D010852
:10475000F40D0108D00D0108B80D010830B587B07F
:10476000A8B10446292300F10C0201A90A480194CA
:104770008DF80D3001F0F4FD054628B99DF908507B
:1047800015B9204601F008F9284607B030BD0546A6
:10479000284607B030BD00BF115A000810B586B0DA
:1047A000A0B10B460E4914460246002B08BF0B462B
:1047B00001920C48ADF810400C3201A9039301F0AE
:1047C000CFFD08B99DF9080006B010BD064B07499A
:1047D0000748FF220BF0DEFA6FF00F00F4E700BF8E
:1047E000B00C0108655B00081C0D0108700E010883
:1047F0006C0D010810B586B0A0B10B460E491446E9
:104800000246002B08BF0B4601920C48ADF8104041
:104810000C3201A9039301F0A3FD08B99DF908002A
:1048200006B010BD064B0749074840F22B120BF0AB
:10483000B1FA6FF00F00F3E7B00C0108CD5B000890
:104840001C0D01088C0E01086C0D01082DE9F041CA
:1048500086B0002900F00081002704460E460F6054
:10486000002800F00381037803F0F003102B2DD013
:1048700000F110084046009709F0E4FC002800F021
:10488000E18094F9085015F10C0F03DA284606B0C0
:10489000BDE8F0813A464046694609F09FFC23781E
:1048A00003F0F003102B009B33D0002B00F08A8024
:1048B0001A681289A56A1DB120460121A847009BEC
:1048C00033600025284606B0BDE8F081062001F0DF
:1048D000F7FF8046B8B12378009703F0F003102B60
:1048E00004F1100725D0384609F0ACFC002800F090
:1048F000C78094F9085015F10C0F2ADA41460620BA
:1049000002F010F8C2E74FF0FF35284606B0BDE8C8
:10491000F0810194002B3FD01B896548039304F17B
:104920000C0201A901F01CFD009B002B5BD01A8931
:10493000C0E7384609F086FC0028D4D104F1140001
:1049400009F080FC002814BF6FF00A056FF00E0517
:10495000D4E738460022694609F040FC237803F08A
:10496000F003102B1AD0009F002F4CD03A68A36A96
:10497000128923B1204601219847009F5FB300258B
:104980002846C8E90077A8F80C50C8F80850C6F8BF
:10499000008006B0BDE8F0810123BEE7009B0194D2
:1049A000002B4DD01B894248039304F10C0201A94E
:1049B00001F0D6FC009FA36A002F32D03A89002B69
:1049C000D8D1DCE73B4B3C493C4840F23E220BF05F
:1049D000E1F9009B6CE7374B3949384840F28A22AD
:1049E0000BF0D8F9CBE7A56A1DB11A460121204684
:1049F000A8476368002B4DD194F90850002D08BFDB
:104A00006FF00D0542E72B4B2B492C4840F23E221C
:104A10000BF0C0F9009FA36A3A681289002BA9D154
:104A2000ADE71BB13A460121204698476368002B49
:104A300037D194F90850002D08BF6FF00D055DE7E0
:104A40000123B0E71B4B1F491C4840F2F5120BF045
:104A5000A1F96FF00A0519E7164B1B4917484FF4E7
:104A60001D720BF097F96FF00F050FE7114B174907
:104A7000124840F276220BF08DF96FF00F0505E732
:104A80000C4B10490D4840F2F5120BF083F96FF012
:104A90000A0533E720460121FFF7D8FD6FF00E0528
:104AA000F4E620460121FFF7D1FD6FF00E0525E762
:104AB000015D00081C0D01088C0F01086C0D010838
:104AC000D41201086C0F01084C0F0108300F0108C7
:104AD00070B586B0002838D01446027802F0F00293
:104AE000102A28D1E4B1027F92070D461BD50A9AFD
:104AF000002A34D0012600F10C02019001A91948C6
:104B000003958DF81430049401F02AFC48B99DF9FE
:104B1000080030B90A9B1BB14EB91C6006B070BDCD
:104B2000002006B070BD13F00406E0D1E3E71A469A
:104B3000049B1360F5E70C4B0C490D4840F2E7224B
:104B40000BF028F96FF00500EBE7074B094908481F
:104B500040F2E6220BF01EF96FF00F00E1E76FF074
:104B60000500DEE7595D00081C0D0108D00F0108A3
:104B70006C0D0108B40F010810B586B080B1034672
:104B800000F10C0242F6031401A90A480193ADF8A2
:104B90000C4001F0E5FB08B99DF9080006B010BD16
:104BA000054B064906484FF44A720BF0F3F86FF0D4
:104BB0000F00F3E74D6000081C0D0108500D0108BF
:104BC0006C0D01082DE9F047044616461F46BDF856
:104BD00020900D4679B3002C35D06368AB4205D0E8
:104BE000224B23492348BA220BF0D4F804F11008D1
:104BF000404609F027FBC8B1062001F061FE0546DA
:104C0000A0B1C0E9006607B13F68AF60A5F80C909D
:104C100040462946368909F0D7FAF8B9A36A13B392
:104C2000324601462046BDE8F04718473046BDE809
:104C3000F04702F04FB80D4B0F490E48B1220BF070
:104C4000A9F8002CC9D1094B0C490A48B2220BF033
:104C5000A1F83046BDE8F04702F03CB82846BDE870
:104C6000F04701F063BABDE8F08700BFF40F010818
:104C70006C1001086C0D0108281001084C10010887
:104C80002DE9F0410F460446002877D065780026CC
:104C9000042D6660667056D009F060FB277209F03B
:104CA00069FBA36A7BB10022042120469847A36ACE
:104CB0004BB10022114620469847A36A1BB100223F
:104CC00002212046984704F11006304609F0BAFA4E
:104CD000002843D104F11406304609F0B3FA002845
:104CE00047D1012D0DD0033D012D0AD9636A43B38D
:104CF0002F4B3049304840F2BD12BDE8F0410BF077
:104D000049B8237F23F004025B07227719D4636A32
:104D1000002B43D01D681F710C35284609F0DCFAC2
:104D2000A0B30023636209F019FB94F908300C3337
:104D3000A8BF277209F01EFB2846BDE8F04109F024
:104D4000C3BABDE8F08109F009FB94F908300C33CF
:104D5000A8BF267209F00EFB0027A2E7304600210B
:104D600004F1140609F030FA304609F06BFA002815
:104D7000B7D03046002109F027FAB2E70C4B0F49B3
:104D80000D484FF4C2720BF005F87FE7084B0C4951
:104D900009484FF4DB720AF0FDFFC2E7044B0949F2
:104DA000054840F2B3120AF0F5FF636AB2E700BFAC
:104DB000F40F0108D41001086C0D01088C100108D3
:104DC000B81001089C1001082DE9F8430F4604466D
:104DD000002800F0E780237803F0F003102B06D0C2
:104DE000A34BA449A4484FF451720AF0D3FF63784F
:104DF000042B06D09E4BA1499F4840F245320AF051
:104E0000C9FF6368002B00F0D580636A002B00F0B7
:104E1000DC801B7A6668032B03F0010803F00209AB
:104E200073D0B8F1000F05D0337D5A1F012A6CD919
:104E3000082B6AD0B9F1000F36D1337D012B00F079
:104E4000AC80B8F1000F40F0A4804A46414630469D
:104E500003F06EFD636A0546002877D11E6818715D
:104E60000C3660626070B8F1000F05D0A56A6DB1B4
:104E7000002211462046A847B9F1000F64D0A56A68
:104E800025B1002202212046A847002509F066FA34
:104E900094F908300C33A8BF257209F06BFA002F83
:104EA0004ED10020BDE8F883B17E11F0100158D03A
:104EB0000021304602F082FF337D012B2CD0B8F167
:104EC000000F40F0D2804146304602F097FF0022AA
:104ED0001146304602F0CEFF0021304602F0A8FF16
:104EE000304603F045FC636A054600BB1E68187136
:104EF0000C3660626070A56A00226260002D00F0CE
:104F00008C8004212046A847ADE70021304602F0FE
:104F100055FF337D012B61D10021304602F0A4FF03
:104F2000304603F025FC636A05460028DED00130D8
:104F300022D01E681D7100230C3663626370A5E7E2
:104F4000304609F0C1F9ACE74D469FE7421CF0D16D
:104F50005A7A002A66D11E6818710C366262627035
:104F600094E7337D012B19D0B8F1000F4BD14146A6
:104F7000304602F043FF68E75D7A002D52D130469B
:104F800003F092FA636A1E681D710C3665626570E3
:104F9000B1E74946304602F015FF4946304602F077
:104FA00063FF52E7324B3649334840F243320AF04E
:104FB000F1FE10E72E4B33492F4840F246320AF0FB
:104FC000E9FE636A002B7FF424AF294B2E492A485F
:104FD00040F247320AF0DEFE636A1AE700213046EB
:104FE00002F0F0FE0021304602F03EFFB9F1000F62
:104FF0003FF46DAF01250021304602F0FFFE002D89
:105000003FF423AF63E70D463046002102F0DAFE9D
:105010000021304602F028FFEDE7B8F1000F7FF4E1
:1050200035AF29E7337D012B12D0B9F1000F17D12D
:1050300001221649304602F01DFF1549304602F0A4
:10504000F7FE3046214602F0B9FE4FF0FF3029E767
:10505000074B1049084840F2E3320AF09BFEE4E7B0
:105060000D49304602F0CAFEE2E74546CCE700BFF4
:10507000F40F0108F01001086C0D0108101101086F
:10508000E00E0108341101089C100108A553000826
:10509000814C000848110108015600082DE9F84329
:1050A0000546164699460F46002936D0002D3CD0BD
:1050B0006B68BB4206D02B4B2B492C484FF48072B7
:1050C0000AF068FE05F11008404609F0BBF80446F6
:1050D00050B9F6B13846318902F0A6FA304601F0EF
:1050E000F9FD2046BDE8F883B9F1000F28D1002E64
:1050F00032D037893146404609F066F8044668BB2D
:10510000AB6A33B128463A46214698472046BDE867
:10511000F88300242046BDE8F883124B1449134855
:10512000F9220AF037FE002DC2D10E4B11490F486B
:10513000FA226FF005040AF02DFE2046BDE8F88340
:1051400009F00CF995F908300C33A8BF85F80890E0
:1051500009F010F9002ECCD13746CBE74FF0FF34E1
:10516000BFE700BFF40F0108B01101086C0D010882
:105170006C1101089011010800286CD0F8B5437833
:10518000032B0446154606D0344B354935484FF4B9
:1051900093620AF0FFFD636A002B4CD01E681D71FC
:1051A0000C36237803F0F003102B2BD0207F20F057
:1051B000040310F00405237715D1B6B10027676208
:1051C000677009F0CBF894F908300C33A8BF277248
:1051D00009F0D0F8A36A1BB12046002202219847AB
:1051E0005DB10020F8BD002EE8D01C4B1E491D48C3
:1051F00040F2A7420AF0CEFDE0E7304609F064F83D
:105200002846F8BD002DD1D165682146284602F018
:10521000D5FD2846154902F0D5FD2846144902F06F
:10522000EDFD28460222134902F024FE28461249C9
:1052300002F0FEFDBAE7237F5B0701D50026B0E749
:10524000064B0E49074840F29A420AF0A3FD636AF2
:10525000002BF3D0A2E76FF005007047F40F0108B0
:10526000D01101086C0D0108301201089D50000892
:1052700001560008A5530008814C0008F0110108F0
:105280002DE9F04300F1100783B00446384608F0DA
:10529000D9FF20B301AE3146384608F0C1FF0130D6
:1052A00017D02378019D03F0F003102B284632D14C
:1052B000002DF0D06368184613B1298902F0B4F9C3
:1052C000284601F007FD3146384608F0A9FF0130B5
:1052D000E7D1384608F062FF384608F0B9FF1434C9
:1052E000204608F0AFFF98B101AE294FDFF8B0902B
:1052F00002E0019DBD4211D13146204608F090FFE9
:105300000130F6D1204608F049FF204608F0A0FF02
:1053100003B0BDE8F08300F009FFBCE72846FFF7C3
:10532000AFFF6B6818461BB103F0BEF800236B603B
:1053300005F1100008F086FFC8B905F1140005F169
:105340000C0808F07FFF50B9404608F0C1FF404606
:1053500008F0C8FF2946072001F0E4FACCE74B46E5
:1053600040F2E5220B490C480AF014FDECE740F24C
:10537000E2220A4908484B460AF00CFD05F11400E8
:1053800005F10C0808F05EFF0028DDD0E7E700BF5C
:10539000202901208C1201086C0D0108501201080F
:1053A000F40F01082DE9F0470446002800F0B6800C
:1053B0006378012B26D0042B19D0237FDA0613D56E
:1053C00062688AB1B2F86010B1F5866F0CD3B2F89A
:1053D0006220042A08D8A56A23F0100323771DB1A0
:1053E000204600220221A8470020BDE8F087636A1A
:1053F0001BB15A7A0AB1013A5A7201212046FFF7CD
:10540000E3FCDAE7636A002B00F0B5806368002BE9
:1054100000F0A980D4E90863D9688E426FD2227F58
:1054200093F8108060689F689207A1EB060554BF4F
:10543000C8F380094FF00109B0F86020B5F5803F4E
:105440002ABF4FF6FF75ADB248F00208AA423744B2
:1054500026D32E448E42AA467CD843462A46394655
:1054600005F08EF8431CDBB2012B064602465DD9DF
:10547000636A0022DA601D681E710023C4E90833E4
:10548000637008F06BFF94F908300C3305F10C05DC
:10549000A8BF267208F06EFF284608F015FF8CE7BB
:1054A000B9F1000F36D0002A36D100297AD09246C1
:1054B0006FF00606A36A13B1032120469847237FA5
:1054C00043F010032377002E73D1D4E90832D1685A
:1054D00053448B42236262D0B9F1000F5FD14D4635
:1054E000606805F03DFD10F10C0F064653DB071D0B
:1054F00051D0002D3FF461AF636A0026BBE7394B02
:1055000039493A484FF4BD620AF044FCD4E90863D3
:10551000D96884E748F0020815469AE7314B3449C8
:1055200032484FF49C720AF035FC41E7B9F1000FA4
:1055300029D16368B3F86010B1F5866F03D3B3F86F
:105540006230042B25D9A76A1FB32A4603212046BF
:10555000B847B8E7234B2749244840F213620AF0C2
:1055600019FC606879E71F4B2349204840F2E65256
:105570000AF010FC4EE71B4B20491C4840F2E55254
:105580000AF008FC42E7636ADB689D42D1D22A46F2
:1055900090E7164697E7636A0022DA606BE7D3600C
:1055A00001259DE7A76AD7B10D468A466FF006062A
:1055B000CBE7701C7FF45CAF606805F0D1FC10F1A4
:1055C0000C0F0646E7DB011DE5D0B9F1000F3FF4F3
:1055D000F4AE636A0022DA606FF006064BE76FF004
:1055E000060646E7F40F0108E01201086C0D0108F9
:1055F0008C10010814130108C81201089C1001083E
:105600002DE9F84F10B34378012B1646044627D0F6
:10561000042B17D0636893B1B3F86020B2F5866F9E
:105620000DD3B3F86230042B09D8237FA56A23F089
:10563000100323771DB1324620460221A8470020DF
:10564000BDE8F88F0121FFF7BFFBE3E77B4B7C4907
:105650007C4840F261120AF09DFB0020BDE8F88F03
:10566000636A002B00F0B9806368002B00F0AD8006
:10567000D4E90873D9688F427AD2227F93F81090C8
:1056800090079A686068A1EB070554BFC9F3800AC8
:105690004FF0010A02EB0708B5F5803FB0F8602033
:1056A0002ABF4FF6FF75ADB249F00209AA4231D2C6
:1056B000BAF1000F2BD062BB002900F09C8093460A
:1056C0006FF00607A36A13B1032120469847237F92
:1056D00043F010032377002F40F09780D4E908327D
:1056E000D1685B448B4223623FD0BAF1000F3CD1BA
:1056F0005546606805F034FC10F10C0F074630DBAE
:10570000011D2ED0002D85D0636A002714E049F0DA
:10571000020915462F448F42AB464DD84B462A46C8
:10572000414604F02DFF431CDBB2012B0746024625
:1057300029D9636A0022DA601D681F710023C4E959
:105740000833637008F00AFE94F908300C3305F151
:105750000C05A8BF277208F00DFE284608F0B4FD1E
:1057600058E7636A0022DA60E6E7D3600125C0E704
:10577000324B354933484FF4BD620AF00BFBD4E994
:105780000873D96879E7BAF1000F2ED16368B3F8CE
:105790006010B1F5866F03D3B3F86230042B09D9DA
:1057A000D4F82880B8F1000F04D02A4603212046FF
:1057B000C04790E717468EE7204B2449214840F226
:1057C00013620AF0E7FA6068A8E71C4B20491D48FD
:1057D00040F2E6520AF0DEFA4AE7184B1D49194832
:1057E00040F2E5520AF0D6FA3EE7636ADB689D4272
:1057F000CCD22A4666E7D4F82880B8F1000F19D039
:105800000D468B466FF00607CFE77A1C91D1606892
:1058100005F0A6FB10F10C0F0746A2DB031DA0D07C
:10582000BAF1000F3FF4F6AE636A0022DA606FF05F
:10583000060781E76FF006077CE700BFF40F010859
:105840008C1001086C0D0108E01201081413010806
:10585000C81201089C10010838B5002305680371BF
:105860000446686860B108F079FD236893F9082060
:105870000C3201DB22791A72BDE8384008F07ABD9B
:105880002B7803F0F003102B16D0202B30D106F02C
:10589000CBFA22686860506858B113781649222BF9
:1058A00004BF0123037406F09FFA23685B68002B92
:1058B000D9D1FF232371D6E702F0ACFE21686860DE
:1058C0004D68002DF5D0284602F078FA28460B499D
:1058D00002F078FA28460A4902F090FA2846022295
:1058E000084902F0C7FA2846074902F0A1FADCE7A6
:1058F000FA232371B7E700BFC54B00089D5000088D
:1059000001560008A5530008814C0008F8B505466B
:1059100007200F4600F0D4FF044618B305F0F0024C
:105920000023102A05700372436001D0202A1BD186
:1059300004F110063046062108F01EFCD8B90146D5
:1059400004F10C0008F088FC0546D8B904F11400F5
:1059500008F07EFCC4E909574FF0FF3365702562FB
:105960002577A3612046F8BD084B094909484FF443
:105970002A720AF00FFA21460720002400F0D2FF15
:105980002046F8BD304608F009FCF4E7F40F0108A2
:10599000401301086C0D010838B54368044633B163
:1059A000164B174917484FF438720AF0F3F904F10F
:1059B000100008F047FCC8B904F1140008F042FCDC
:1059C00030B10E4B10490F4840F2E5220AF0E2F9DF
:1059D00004F10C05284608F07BFC284608F082FC00
:1059E00021460720BDE8384000F09CBF034B074923
:1059F000044840F2E2220AF0CDF9DDE7F40F010895
:105A0000681301086C0D01088C120108501201087E
:105A1000036870B55D7804461DB31A7802F0F00291
:105A2000102A4AD1022D1CD0032D17D0FB2222713F
:105A300003F10C0008F050FC00283DD02368002B37
:105A40003AD008F08BFC236893F908200C32A4BFED
:105A500022791A72BDE8704008F08CBC1A7F520798
:105A6000E4D5002518462571FFF70AFC236858681D
:105A700060B11A7802F0F002102A29D0202A03D14E
:105A8000C56106F0B5F9236800225A609D6A002DB1
:105A9000CED0002218461146A84723689D6A002DE3
:105AA000C6D0184600220221A847236803F10C0043
:105AB00008F012FC0028C1D170BD244B24492548B0
:105AC00040F201420AF066F9022D2368ACD1C8E722
:105AD0005A6A002A2ED01D4B1F491E4840F23542FB
