:020000040800F2
:100000000000022049D9000891D6000893D60008C4
:1000100095D6000897D6000899D600080000000081
:10002000000000000000000000000000613E000829
:100030009BD6000800000000013F00089DD6000884
:1000400099D9000899D9000899D9000899D90008C8
:1000500099D9000899D9000899D9000899D90008B8
:10006000A5D60008CDD60008F9D6000899D9000811
:1000700099D9000899D9000899D9000899D9000898
:1000800099D9000899D9000899D9000899D9000888
:1000900099D9000899D9000899D9000831D70008E2
:1000A00099D9000899D9000899D9000899D9000868
:1000B00099D9000899D9000899D9000899D9000858
:1000C00099D9000899D9000899D9000899D9000848
:1000D00099D9000899D9000899D9000899D9000838
:1000E000D1D7000899D9000899D9000899D90008F2
:1000F00099D9000899D9000899D9000899D9000818
:1001000099D9000899D9000899D9000899D9000807
:1001100099D9000899D9000899D9000845D800084C
:1001200099D9000899D9000899D9000899D90008E7
:1001300099D9000855D8000899D9000899D900081C
:1001400099D9000899D9000899D9000899D90008C7
:1001500099D9000899D9000899D9000899D90008B7
:1001600099D9000899D9000899D9000899D90008A7
:1001700099D9000899D9000899D900080000000011
:0801800099D9000899D9000883
:1001900010B5054C237833B9044B13B10448AFF3C1
:1001A00000800123237010BD8000002000000000AB
:1001B0005CEB000808B5034B1BB103490348AFF3E0
:1001C000008008BD00000000840000205CEB0008F7
:1001D00053B94AB9002908BF00281CBF4FF0FF31AE
:1001E0004FF0FF3000F072B9ADF1080C6DE904CEAC
:1001F00000F006F8DDF804E0DDE9022304B0704702
:100200002DE9F047089E04468846002B4BD18A42D0
:10021000154667D9B2FA82F24AB1C2F1200701FA53
:1002200002F320FA07F7954047EA030894404FEAA3
:10023000154E230CB8FBFEF71FFA85FC0EFB178842
:1002400043EA084307FB0CF1994209D9EB1807F17F
:10025000FF3080F01B81994240F21881023F2B440D
:100260005B1AA4B2B3FBFEF00EFB103344EA034466
:1002700000FB0CFCA44509D92C1900F1FF3380F0D8
:100280000781A44540F2048102382C4440EA07402B
:10029000A4EB0C0400271EB1D4400023C6E90043A0
:1002A0003946BDE8F0878B4209D9002E00F0EB807B
:1002B0000027C6E9000138463946BDE8F087B3FAA1
:1002C00083F7002F47D18B4202D3824200F2FA809B
:1002D000841A61EB030301209846002EE0D0C6E9A2
:1002E0000048DDE702B9FFDEB2FA82F2002A40F0F0
:1002F0008F80491B4FEA154E1FFA85F80127B1FB85
:10030000FEFC230C0EFB1C1143EA014308FB0CF11D
:10031000994207D9EB180CF1FF3002D2994200F252
:10032000CD808446591AA3B2B1FBFEF00EFB101427
:1003300043EA044408FB00F8A04507D92C1900F152
:10034000FF3302D2A04500F2B6801846A4EB0804A1
:1003500040EA0C409FE7C7F1200CBB4022FA0CFE9C
:100360004EEA030E01FA07F420FA0CF521FA0CF319
:100370004FEA1E482543B3FBF8F92C0C08FB193350
:100380001FFA8EFA44EA034309FB0AF49C4202FA7C
:1003900007F200FA07F10BD91EEB030309F1FF3056
:1003A00080F087809C4240F28480A9F10209734466
:1003B0001B1BADB2B3FBF8F008FB103345EA034456
:1003C00000FB0AFAA24508D91EEB040400F1FF3332
:1003D0006BD2A24569D90238744440EA0940A0FBB7
:1003E0000289A4EB0A044C45C2464B4654D351D073
:1003F000002E69D0B1EB0A0564EB030404FA0CFC8F
:10040000FD40FC404CEA0505C6E90054002747E7DB
:10041000C2F1200320FA03F7954001FA02F021FA15
:1004200003F34FEA154E3843010CB3FBFEF71FFAF6
:1004300085F80EFB173341EA034107FB08F38B42B3
:1004400004FA02F407D9691807F1FF3C2FD28B4256
:100450002DD9023F2944CB1A81B2B3FBFEF00EFB2B
:10046000103341EA034100FB08F38B4207D96918B6
:1004700000F1FF3C17D28B4215D902382944C91A22
:1004800040EA07473BE73746304609E70746E7E6D5
:100490001846FBE64145ABD2B8EB020A69EB0E0207
:1004A00001381346A4E76046E9E7184695E7674632
:1004B000D1E781467CE702382C4447E7ACF1020CD7
:1004C0002B442FE7384608E73746E9E6704700BF78
:1004D000034613F8012B002AFBD1181A0138704784
:1004E00001F0FF01102A2BDB10F0070F08D010F8E5
:1004F000013B013A8B422DD010F0070F42B3F6D1E9
:10050000F0B441EA012141EA014122F007047FF001
:1005100000070023F0E80256083C85EA010586EA58
:10052000010685FA47F5A3FA87F586FA47F6A5FA94
:1005300087F68EB9EED1F0BC01F0FF0102F00702A0
:1005400032B110F8013B013A83EA010313B1F8D14B
:100550000020704701387047002D06BF354603382C
:10056000073815F0010F07D1013015F4807F02BF65
:10057000013015F4C03F0130F0BC0138704700BFB6
:1005800008B50B4B1A6842F400721A601A6842F4FC
:1005900080621A601A6842F480721A60032000F0C8
:1005A0002FF800200DF036F80CF04EFE002008BDAC
:1005B000003C0240034A1168034B1B780B44136054
:1005C000704700BFA028012000000020014B1868E0
:1005D000704700BFA028012038B50446FFF7F6FF9A
:1005E0000546B4F1FF3F02D0044B1B781C44FFF7D3
:1005F000EDFF401BA042FAD338BD00BF0000002031
:10060000074AD36823F4E0631B041B0C000200F4C8
:10061000E060184340F0BF6040F40030D0607047A5
:1006200000ED00E030B4174BDB68C3F30223C3F1E5
:100630000704042C28BF04241D1D062D18D9033BD4
:100640004FF0FF3505FA04F421EA0401994005FA58
:1006500003F322EA0303194300280BDB0901C9B2A3
:1006600000F1604000F5614080F8001330BC704735
:100670000023E5E700F00F000901C9B2024B19544D
:10068000F4E700BF00ED00E014ED00E000F01F0211
:10069000400901239340024A42F82030704700BFCE
:1006A00000E100E000F01F024009012393402030E8
:1006B000014A42F82030704700E100E00138B0F113
:1006C000807F0AD2064B5860064AF02182F8231038
:1006D0000020986007221A6070470120704700BF11
:1006E00010E000E000ED00E0042805D0054A1368A2
:1006F00023F0040313607047024A136843F00403B5
:100700001360704710E000E05079137943EA00234A
:1007100007480B50D07893781B0443EA0063507865
:1007200043EA002312781343024A8B50704700BFFC
:100730004080024044800240016841F218028B5818
:1007400043F400538B507047016841F218028B58F4
:1007500043F002038B50704782B0084B1B68084A75
:10076000A2FB03235B0A00FB03F0019000BF019B87
:100770005A1E0192002BF9D102B0704718000020D8
:10078000D34D621010B582B0044600230193026875
:10079000136843F00803136003681B68019301208A
:1007A000FFF7DAFF2368019A1A6002B010BD10B596
:1007B00082B00446002301930268136843F00403E7
:1007C000136003681B6801930120FFF7C5FF2368CE
:1007D000019A1A6002B010BD30B583B005460023FF
:1007E0000193026841F21804135943F48013135122
:1007F00003681B5901930120FFF7AEFF2B68019A94
:100800001A5103B030BD000070B59EB0044629B146
:100810004FF40063C3604FF480438360E369002BAF
:100820006AD14FF48063079321680B68394A1A40F4
:10083000A368E06803430798034343F4007313433A
:100840000B6023681D680120FFF7C6FE23681D604A
:10085000236840225A6023685D680120FFF7BCFED0
:1008600023685D60236800259D602368DD60226841
:10087000936923F0BE031B041B0C43F080039361B8
:1008800023689E690120FFF7A7FE23689E61236805
:10089000DD612368DD690120FFF79EFE2368DD61CD
:1008A000226841F2180551591B4B0B4043F0087365
:1008B00043F00403535123685E590120FFF78CFE77
:1008C00023685E51236803F58053144A1A60236835
:1008D00003F580531D680120FFF77EFE236803F5B2
:1008E00080531D60A369012B09D062690021204655
:1008F000FFF70AFF1EB070BD0023079394E721683D
:1009000041F21C028B5843F4803343F040038B5078
:10091000EBE700BF0F8120FF233FDEF88020C102FC
:10092000F0B490F84540012C31D0012480F84540C6
:10093000022480F84440C162002401E0F9600134DF
:100940009C4217D265014F194FF480164E5140F268
:10095000F45606FB0426BE60C6691EB94E5946F41D
:1009600040064E515D1EA542E8D9651C01EB4515B8
:10097000FD60E4E7026841F21003D150012380F8E2
:100980004430002380F845301846F0BC7047022000
:10099000FBE7F0B490F84540012C2ED0012480F8FC
:1009A0004540022480F844408162002401E0E9606F
:1009B00001349C4214D266018D194FF000478F51CB
:1009C00044F2F4566E6040F2F45606FB0426AE6024
:1009D0005E1EA642EBD9661C01EB4616EE60E7E709
:1009E000026841F20C03D150012380F84430002307
:1009F00080F845301846F0BC70470220FBE7000045
:100A000090F84530012B00F08580012380F84530B7
:100A1000022380F84430B1B1C36A1A68002A1ADB95
:100A200030B440F2F45291421DD93B4AA2FB01423C
:100A3000920A40F2F45404FB121404B10132012A68
:100A400011D0002347E0012380F84430002280F8D1
:100A5000452018467047122380F84430002380F860
:100A60004530012070471A6842F040521A60C36A4C
:100A7000C1F30C015960C26A136843F0004313606C
:100A8000C36ADB68C362036841F214029A5812F029
:100A9000040F08D041F2140204219950026841F277
:100AA00004030021D150012380F84430002380F852
:100AB0004530184630BC7047C56A2C6844F08054F5
:100AC0002C6011E0C56A2C6844F000442C60C46AB4
:100AD000E468C46201339A42D5D9C56A2C6824F00F
:100AE00040542C60002BE7D0C46A40F2F455656096
:100AF000541E9C42E6D1C56A2C6844F000542C6018
:100B0000064C04FB021404F2F454C56AC4F30C044A
:100B10006C60D7E7022070470BB002AC0CFAFFFF05
:100B200090F84530012B45D0012380F84530022351
:100B300080F844300021836A1A68002A32DB0329D6
:100B400030D801311A6802F44072B2F5007F09D042
:100B50001A6812F4407F0BD1826B01328263DB682A
:100B60008362E8E7036301228263DB688362E2E772
:100B70004363826B01328263012A11D01A68C2F387
:100B80000D42043AC263026B92680264DB688362BE
:100B9000012380F84430002380F845301846704720
:100BA0000363EBE7012380F84430002280F84520FE
:100BB00018467047022070477047704710B50446CA
:100BC000036841F214029A5812F0400F11D141F219
:100BD00014029B5813F0010F19D1226841F214033B
:100BE0004FF48031D1502268D35813F4004F1BD1F9
:100BF00010BD0BF037FC226841F214034021D150A4
:100C0000012384F84430002384F84530E5E7FFF7FA
:100C1000D3FF2168012341F214028B5084F8443041
:100C2000002384F84530D8E72046FFF7C6FF226846
:100C300041F214034FF40041D150012384F84430B1
:100C4000002384F84530D3E7F8B590F84430DBB2A0
:100C5000822B33D016460546822380F84430026842
:100C6000136903F01C03048AE402A4B223438C0139
:100C700004F4F8641C4344F001041461FFF7A6FC7B
:100C8000074614F0010F10D0FFF7A0FCC01BB0F511
:100C9000803F02D22B681C69F3E7012385F84430BA
:100CA000002385F84530032007E02B685B699BB281
:100CB0003360012385F844300020F8BD0220FCE7B2
:100CC00090F84430DBB2422B32D070B50546422357
:100CD00080F844300068036903F01C032C8AE402A6
:100CE000A4B223438C0104F4F8641C4344F00304CD
:100CF00092B242612B681C61FFF768FC064614F053
:100D0000010F10D0FFF762FC801BB0F5803F02D2CC
:100D10002B681C69F3E7012385F84430002385F82C
:100D20004530032003E0012385F84430002070BDE6
:100D30000220704770B582B000230193002800F0B4
:100D40000E81044690F84430002B34D000230093E9
:100D5000844B5A6C42F480425A645B6C03F48043C7
:100D60000093009B804B5A6822F400025A605A6834
:100D7000216A0A435A60236803F580531A6842F0D7
:100D800001021A60FFF722FC0546236803F5805232
:100D9000126812F0010F13D0FFF718FC401BB0F5DA
:100DA000FA7FF2D9032584F84450002384F84530B3
:100DB000284602B070BD80F845300BF0F7FAC5E761
:100DC0001D6925F01C0500F05DFD684B0344684A71
:100DD000934255D845F0080523681D614FF4004241
:100DE00000212046FFF76CFF0546002860D1FF2058
:100DF000FFF7F2FB6368002B00F09180FFF7E6FB42
:100E0000064601AA01212046FFF71EFFFFF7DEFB81
:100E1000801B41F28833984252D8019B13F0040F93
:100E2000EFD04FF4805200212046FFF749FF002801
:100E300052D1FFF7CBFB064601AA01212046FFF75E
:100E400003FFFFF7C3FB801B41F2883398424BD866
:100E5000019B13F0200FEFD001AA10212046FFF7CD
:100E6000F3FE00284CD1019B13F0040F50D04FF437
:100E70000062E26013F0020F4DD00023A3605EE039
:100E80003C4B03443C4A934202D845F00C05A3E78F
:100E90003A4B03443A4A93429ED93A4B03443A4A66
:100EA000934202D845F0040596E745F0100593E714
:100EB00001212046FFF7A8FC012584F8445077E77C
:100EC00001212046FFF7A0FC012384F844300023D1
:100ED00084F8453003256BE701212046FFF794FC99
:100EE000012584F8445063E701212046FFF78CFC7C
:100EF000012384F84430002384F84530032557E764
:100F000001212046FFF780FC012584F844504FE77B
:100F10000022E260AEE74FF48043A3600FE0E26896
:100F2000C2F3CF02A368C3F34F031A430021204644
:100F3000FFF7C6FE58B940F6FF70FFF74DFB0021E2
:100F40002046FFF761FC012384F8443030E701219B
:100F50002046FFF759FC012584F8445028E7012575
:100F600026E700BF003802400038014000D3CEFE23
:100F7000BFE1E40040F1E9FD3F787D0100796CFCC0
:100F8000FF596202001F0AFA7FF0FA0238B590F8A2
:100F90004530012B1AD00446012580F84550022324
:100FA00080F84430FFF7EEFB2046FFF700FC2046B8
:100FB000FFF712FC2046FFF7BFFB2046FFF7C4FBFC
:100FC00084F84450002084F8450038BD0220FCE736
:100FD00000230F2B00F2D780F0B482B039E0072253
:100FE00000E00022B2403A430234674E46F8242023
:100FF000664A1468EA4302EA04064F6817F4803F21
:1010000001D045EA0406614C2660646802EA0406E1
:101010004F6817F4003F01D045EA04065B4C666058
:10102000A46802EA04064F6817F4801F01D045EA5D
:101030000406564CA660E46822404E6816F4001F71
:1010400001D045EA0402514CE26001330F2B00F25B
:10105000978001229A400C6804EA0205AA42F4D162
:101060004C68022C01D0122C10D1DE08083650F842
:1010700026C003F00704A7000F24BC402CEA040C90
:101080000C69BC4044EA0C0440F8264004685F0048
:101090000326BE40F64306EA040C4C6804F0030441
:1010A000BC4044EA0C0404604C6804F1FF3CBCF111
:1010B000010F03D9112C01D0122C10D1846806EA3B
:1010C000040CCC68BC4044EA0C048460446824EA04
:1010D00002024C68C4F300149C4014434460C2688C
:1010E00016408A68BA403243C2604A6812F0805F94
:1010F000ABD000220192264A546C44F480445464DC
:10110000526C02F480420192019A9C08A61C1E4A6D
:1011100052F8267003F0030296000F22B24027EA2D
:1011200002071C4A90423FF45CAF02F58062904295
:101130001AD002F58062904218D002F58062904287
:1011400016D002F58062904214D002F5806290427F
:1011500012D002F58062904210D002F58062904277
:101160003FF43DAF08223DE701223BE7022239E789
:10117000032237E7042235E7052233E7062231E769
:1011800002B0F0BC7047704700380140003C01409D
:10119000003802400000024012B909048161704722
:1011A000816170474369594041617047002800F0F0
:1011B000828010B5044690F83D30002B41D02423A6
:1011C00084F83D302268136823F00103136000F0B7
:1011D0005FFB3A4BA3FB00239B0C226853606168C2
:1011E000374A914232D80133226813626368344A25
:1011F000934235D85B00B0FBF3F0C0F30B03032B35
:1012000000D804202368D861E369216A22680B436F
:1012100013602369E16822680B4393606369A169E5
:1012200022680B43D3602268136843F00103136004
:1012300000202064202384F83D30206384F83E00A1
:1012400010BD80F83C300CF049F8B8E74FF49672C6
:1012500002FB03F31B4AA2FB03239B090133C3E7F1
:10126000A16889B903EB4302B0FBF2F2C2F30B02AF
:10127000B2FA82F25209E2B991B903EB4303B0FB2F
:10128000F3F040F40040BDE703EB830202EB82027F
:10129000B0FBF2F2C2F30B02B2FA82F25209EAE7B1
:1012A00003EB830303EB8303B0FBF3F040F4404014
:1012B000A8E70120A6E70120704700BF83DE1B439B
:1012C000A0860100D34D6210002800F0BB8170B5EC
:1012D00082B00446036813F0010F3BD0A74B9B6814
:1012E00003F00C03042B2CD0A44B9B6803F00C03DD
:1012F000082B21D06368B3F5803F4FD0B3F5A02F02
:1013000052D09E4B1A6822F480321A601A6822F476
:1013100080221A606368002B50D0FFF757F905460A
:10132000964B1B6813F4003F14D1FFF74FF9401B95
:101330006428F5D903208AE1904B5B6813F4800F91
:10134000D8D08E4B1B6813F4003F03D06368002B8A
:1013500000F07A81236813F0020F55D0874B9B6809
:1013600013F00C0F3ED0854B9B6803F00C03082B49
:1013700033D0E368002B68D0814B01221A60FFF75D
:1013800025F905467D4B1B6813F0020F54D1FFF77A
:101390001DF9401B0228F5D9032058E1774A13684C
:1013A00043F480331360B5E7744B1A6842F480222B
:1013B0001A601A6842F480321A60ABE7FFF706F948
:1013C00005466E4B1B6813F4003FC3D0FFF7FEF8D1
:1013D000401B6428F5D9032039E1684B5B6813F49E
:1013E000800FC6D1654B1B6813F0020F04D0E36871
:1013F000012B01D001202AE1604A136823F0F80391
:10140000216943EAC1031360236813F0080F40D039
:10141000636963B35B4B01221A60FFF7D7F8054697
:10142000564B5B6F13F0020F33D1FFF7CFF8401B21
:101430000228F5D903200AE1504A136823F0F80383
:10144000216943EAC1031360DEE74D4B00221A60B5
:10145000FFF7BCF80546494B1B6813F0020FD3D0C9
:10146000FFF7B4F8401B0228F5D90320EFE0454B05
:1014700000221A60FFF7AAF80546404B5B6F13F095
:10148000020F06D0FFF7A2F8401B0228F5D903206F
:10149000DDE0236813F0040F79D0384B1B6C13F098
:1014A000805F33D100230193344B1A6C42F0805299
:1014B0001A641B6C03F080530193019B0125324B8E
:1014C0001B6813F4807F23D0A368012B34D0052B35
:1014D00038D02A4B1A6F22F001021A671A6F22F0D5
:1014E00004021A67A368002B36D0FFF76FF8064690
:1014F000224B1B6F13F0020F48D1FFF767F8801BD8
:1015000041F288339842F3D90320A0E00025D6E7C2
:101510001D4A136843F480731360FFF757F80646BB
:10152000194B1B6813F4807FCED1FFF74FF8801B57
:101530000228F5D903208AE0104A136F43F0010313
:101540001367CFE70D4B1A6F42F004021A671A6F48
:1015500042F001021A67C5E7FFF738F80646074B65
:101560001B6F13F0020F11D0FFF730F8801B41F210
:1015700088339842F3D9032069E000BF0038024065
:1015800000004742800E474200700040E5B9A36961
:10159000002B5BD0304A926802F00C02082A58D027
:1015A000022B17D02D4B00221A60FFF70FF80446CC
:1015B000294B1B6813F0007F42D0FFF707F8001B90
:1015C0000228F5D9032042E0234A136C23F080530C
:1015D0001364DCE7214B00221A60FEF7F7FF054693
:1015E0001D4B1B6813F0007F06D0FEF7EFFF401B7A
:1015F0000228F5D903202AE0E369226A1343626ACC
:1016000043EA8213A26A5208013A43EA0243E26AB9
:1016100043EA0263104A5360104B01221A60FEF73E
:10162000D5FF04460C4B1B6813F0007F06D1FEF774
:10163000CDFF001B0228F5D9032008E0002006E0BA
:10164000002004E001207047012000E0002002B0EB
:1016500070BD0120FBE700BF003802406000474238
:10166000304B9B6803F00C03082B58D12DE9F04B4D
:101670002C4B5A6802F03F025B6813F4800F2BD0AA
:10168000284B5B68C3F388131E4600275C010025C6
:10169000E41A65EB0705A90141EA9461A001001B6A
:1016A00061EB0501CB0043EA5073C400A01943EB82
:1016B00007018B0243EA9053840220461946002317
:1016C000FEF786FD174B5B68C3F3014301335B00F4
:1016D000B0FBF3F0BDE8F08B124B5B68C3F38813EB
:1016E0001E4600275C010025E41A65EB0705A901E9
:1016F00041EA9461A001001B61EB0501CB0043EAC4
:101700005073C400A01943EB07018B0243EA9053C6
:101710008402204619460023FEF75AFDD2E702480C
:10172000704700BF003802400024F400002800F099
:101730009D8070B504464F4B1B6803F00F038B422E
:1017400009D2CBB24B4A1370136803F00F038B42DC
:1017500001D0012070BD236813F0020F17D013F0E1
:10176000040F04D0444A936843F4E0539360236821
:1017700013F0080F04D0404A936843F46043936029
:101780003D4A936823F0F003A068034393600D463D
:10179000236813F0010F32D06368012B21D09A1E09
:1017A000012A25D9344A126812F0020F60D032495A
:1017B0008A6822F0030213438B60FEF707FF064698
:1017C0002D4B9B6803F00C036268B3EB820F16D0BD
:1017D000FEF7FCFE801B41F288339842F0D90320CB
:1017E000B8E7254A126812F4003FE0D10120B1E7C2
:1017F000214A126812F0007FD9D10120AAE71D4BBF
:101800001B6803F00F03AB4209D9EAB2194B1A70F7
:101810001B6803F00F03AB4201D001209AE7236855
:1018200013F0040F06D0144A936823F4E053E168E0
:101830000B439360236813F0080F07D00E4A936898
:1018400023F46043216943EAC1039360FFF708FF73
:10185000094B9B68C3F30313084AD35CD840084B79
:10186000186000200BF0D6FE002073E701207047BF
:1018700001206FE7003C0240003802401CED0008E8
:1018800018000020014B1868704700BF18000020A6
:1018900008B5FFF7F7FF044B9B68C3F38223034AA5
:1018A000D35CD84008BD00BF003802402CED0008D2
:1018B00008B5FFF7E7FF044B9B68C3F34233034AC5
:1018C000D35CD84008BD00BF003802402CED0008B2
:1018D0000F2303600B4B9A6802F0030242609A6880
:1018E00002F0F00282609A6802F4E052C2609B68E3
:1018F000DB0803F4E0530361034B1B6803F00F03A1
:101900000B60704700380240003C024000283BD08A
:1019100010B504460023836290F85130002B2ED07E
:10192000022384F851302268136823F040031360C7
:101930006368A2681343E268134322691343626930
:101940001343A26902F400721343E2691343226A4B
:101950001343A16A22680B431360638B03F00403F3
:10196000616A22680B4353602268D36923F40063E1
:10197000D36100206065012384F8513010BD80F8E8
:1019800050300BF0D7FCCBE70120704770B4036AEE
:1019900023F001030362036A4268846924F073043C
:1019A0000D6845EA040623F002048B6823430C4DBE
:1019B000A84202D00B4CA0420BD123F00803CD6803
:1019C0002B4323F0040322F440724D6915438A69C6
:1019D0002A43426086614A684263036270BC704772
:1019E000000001400004014030B4036A23F4807316
:1019F0000362036A4268C46924F073040D682C43CF
:101A000023F400738D6843EA05230E4DA84203D0EA
:101A100005F58065A8420ED123F40063CD6843EA42
:101A2000052323F4806322F440524D6942EA0512F3
:101A30008D6942EA05124260C4614A68C26303626A
:101A400030BC70470000014030B4036A23F4805377
:101A50000362036A4468C26922F4E6420D6842EAFE
:101A6000052223F400538D6843EA0533094DA8424B
:101A700003D005F58065A84204D124F480444D6963
:101A800044EA85144460C2614A680264036230BC5F
:101A9000704700BF0000014010B4036A046A24F0DC
:101AA00001040462846924F0F00444EA021223F081
:101AB0000A030B43826103625DF8044B704710B464
:101AC000036A23F0100303628469036A24F47044F8
:101AD00044EA023223F0A00343EA01138261036265
:101AE0005DF8044B7047836823F0700341F00701F1
:101AF00019438160704710B4846824F47F4442EA3B
:101B000003230B43234383605DF8044B7047026853
:101B1000D36843F00103D3600268136843F0010304
:101B2000136000207047704790F83830012B7DD04B
:101B300010B50446012380F83830022380F839308C
:101B40000268936823F47F4323F0770393600B6864
:101B5000402B57D010D9702B3ED01FD8502B47D0D8
:101B6000602B32D1CA6849680068FFF7A8FF60217E
:101B70002068FFF7B8FF28E0102B4DD008D9202BA4
:101B80004FD0302B21D130210068FFF7ACFF1CE093
:101B9000DBB900210068FFF7A6FF16E0B3F5805F10
:101BA0000ED0B3F5005F10D1CB684A688968006831
:101BB000FFF7A1FF2268936843F48043936004E039
:101BC0000268936823F007039360012384F8393097
:101BD000002084F8380010BDCB684A688968006826
:101BE000FFF789FF2268936843F077039360ECE77F
:101BF000CA6849680068FFF74FFF50212068FFF767
:101C000072FFE2E7CA6849680068FFF745FF4021B4
:101C10002068FFF768FFD8E710210068FFF763FF2F
:101C2000D3E720210068FFF75EFFCEE70220704770
:101C3000704770477047704710B5044603681A69CB
:101C400012F0020F11D0DA6812F0020F0DD06FF00F
:101C500002021A610123037603689B6913F0030FE4
:101C600070D0FFF7E6FF0023237623681A6912F08D
:101C7000040F12D0DA6812F0040F0ED06FF00402D5
:101C80001A610223237623689B6913F4407F5FD097
:101C90002046FFF7CEFF0023237623681A6912F04F
:101CA000080F12D0DA6812F0080F0ED06FF0080299
:101CB0001A61042323762368DB6913F0030F4ED0E7
:101CC0002046FFF7B6FF0023237623681A6912F037
:101CD000100F12D0DA6812F0100F0ED06FF0100251
:101CE0001A61082323762368DB6913F4407F3DD013
:101CF0002046FFF79EFF0023237623681A6912F01F
:101D0000010F03D0DA6812F0010F36D123681A6987
:101D100012F0800F03D0DA6812F0800F34D12368FC
:101D20001A6912F0400F03D0DA6812F0400F32D176
:101D300023681A6912F0200F03D0DA6812F0200F1E
:101D400030D110BDFFF774FF2046FFF773FF8AE71D
:101D50002046FFF76DFF2046FFF76CFF9BE720460C
:101D6000FFF766FF2046FFF765FFACE72046FFF769
:101D70005FFF2046FFF75EFFBDE76FF001021A61CB
:101D800020460AF0EBFFC1E76FF080021A6120469F
:101D900000F0E9F9C3E76FF040021A612046FFF74F
:101DA0004AFFC5E76FF020021A61204600F0DAF919
:101DB000C7E7000003682E4A904212D0B0F1804F6E
:101DC0000FD0A2F57C4290420BD002F58062904287
:101DD00007D002F58062904203D002F5784290422B
:101DE00003D123F070034A681343214A90422AD05A
:101DF000B0F1804F27D0A2F57C42904223D002F56B
:101E0000806290421FD002F5806290421BD002F5A2
:101E10007842904217D002F57052904213D002F5EA
:101E2000806290420FD002F5806290420BD0A2F502
:101E30009832904207D002F58062904203D002F5BA
:101E40008062904203D123F44073CA681343036055
:101E50008B68C3620B688362054B984203D003F51D
:101E60008063984201D10B6903630123436170478A
:101E700000000140A8B110B5044690F839305BB1BC
:101E8000022384F83930211D2068FFF793FF0123D6
:101E900084F83930002010BD80F838300BF0CCFACF
:101EA000EEE701207047A8B110B5044690F839302C
:101EB0005BB1022384F83930211D2068FFF77AFFD7
:101EC000012384F83930002010BD80F83830FFF746
:101ED0002AFEEEE701207047002847D0F8B50546F6
:101EE0000C4690F83930002B3BD0022385F839306E
:101EF000294651F8042B936823F007039360286860
:101F0000FFF758FF29688A688E690F6A20681043B6
:101F100026F4407626F00306A268A36942EA03236A
:101F2000334323F47C4323F0FC03E668E26946EA8A
:101F300002261E43226A1303226943EA0213334333
:101F400027F0AA076268646942EA04123A4388608B
:101F500029688B612B681A62012385F839300020CB
:101F6000F8BD80F838300BF01DFABEE7012070474D
:101F700030B4036A23F010030362036A4468826981
:101F800022F4E6420D6842EA052223F020038D6820
:101F900043EA05130E4DA84203D005F58065A8421B
:101FA0000ED123F08003CD6843EA051323F04003EC
:101FB00024F440644D6944EA85048D6944EA85044B
:101FC000446082614A688263036230BC704700BF2C
:101FD0000000014038B590F83830012B66D00D462E
:101FE0000446012380F83830022380F839300C2A67
:101FF0001AD8DFE802F0071919192019191934192C
:10200000191947000068FFF7C1FC2268936943F083
:10201000080393612268936923F0040393612268A3
:10202000936929690B439361012384F839300020B7
:1020300084F8380038BD0068FFF79AFF226893697A
:1020400043F4006393612268936923F4806393618E
:1020500022689369296943EA01239361E4E70068F0
:10206000FFF7C2FC2268D36943F00803D3612268FA
:10207000D36923F00403D3612268D36929690B4330
:10208000D361D1E70068FFF7DFFC2268D36943F42E
:102090000063D3612268D36923F48063D36122682B
:1020A000D369296943EA0123D361BDE70220C1E76F
:1020B00010B4012303FA01F4036A23EA0403036260
:1020C000036A8A40134303625DF8044B704710B5FE
:1020D000044661B1042916D0012200210068FFF7EF
:1020E000E7FF012204212068FFF7E2FF04E001225C
:1020F00000210068FFF7DCFF2268136843F001034A
:102100001360002010BD012204210068FFF7D0FFFA
:10211000F2E790F83830012B22D030B4012280F859
:102120003820022380F839300468636823F0700394
:102130006360046863680D682B4363600468A36888
:1021400023F08003A3600468A36849680B43A3607D
:1021500080F83920002380F83830184630BC7047AA
:1021600002207047704770472DE9F8430446016824
:102170000A6922F44052C36813430B610168CA68BC
:1021800022F4164222F00C0283680069034360695E
:102190000343E06903431343CB6021684A6922F497
:1021A0004072A36913434B61E369B3F5004F60D0FC
:1021B0002368B84A934200F0148102F5806293428A
:1021C00000F00F81FFF764FB00EB800000EB800064
:1021D0006568AD00B0FBF5F5AF4FA7FB05356D09A0
:1021E0002E01FFF755FB00EB800000EB80006568D7
:1021F000AD00B0FBF5F9FFF74BFB00EB800000EB07
:1022000080006568AD00B0FBF5F5A7FB05356D09ED
:102210004FF0640808FB15952D013235A7FB0535F5
:102220006D0905F0F0053544FFF732FB00EB800047
:1022300000EB80006668B600B0FBF6F6FFF728FBFF
:1022400000EB800000EB800063689B00B0FBF3F0C4
:10225000A7FB0030400908FB10684FEA081808F196
:102260003208A7FB0837C7F3431723682F449F6042
:102270000DE12368874A93425BD002F58062934266
:1022800057D0FFF705FB00EB800000EB800065688E
:102290006D00B0FBF5F5804FA7FB05356D092E01EC
:1022A000FFF7F6FA00EB800000EB800065686D0038
:1022B000B0FBF5F9FFF7ECFA00EB800000EB8000D3
:1022C00065686D00B0FBF5F5A7FB05356D094FF0AE
:1022D000640808FB1595ED003235A7FB05356D093F
:1022E0006D0005F4F8753544FFF7D2FA00EB800075
:1022F00000EB800066687600B0FBF6F6FFF7C8FAE0
:1023000000EB800000EB800063685B00B0FBF3F340
:10231000A7FB03235B0908FB13684FEAC80808F111
:102320003208A7FB0837C7F3421723682F449F6082
:10233000ADE0FFF7BDFA00EB800000EB80006568C0
:102340006D00B0FBF5F5544FA7FB05356D092E0167
:10235000FFF7AEFA00EB800000EB800065686D00CF
:10236000B0FBF5F9FFF7A4FA00EB800000EB80006A
:1023700065686D00B0FBF5F5A7FB05356D094FF0FD
:10238000640808FB1595ED003235A7FB05356D098E
:102390006D0005F4F8753544FFF78AFA00EB80000C
:1023A00000EB800066687600B0FBF6F6FFF780FA77
:1023B00000EB800000EB800063685B00B0FBF3F390
:1023C000A7FB03235B0908FB13684FEAC80808F161
:1023D0003208A7FB0837C7F3421723682F449F60D2
:1023E00055E0FFF765FA00EB800000EB80006568C0
:1023F000AD00B0FBF5F5284FA7FB05356D092E01A3
:10240000FFF756FA00EB800000EB80006568AD0036
:10241000B0FBF5F9FFF74CFA00EB800000EB800011
:102420006568AD00B0FBF5F5A7FB05356D094FF00C
:10243000640808FB15952D013235A7FB05356D099C
:1024400005F0F0053544FFF733FA00EB800000EBB0
:1024500080006668B600B0FBF6F6FFF729FA00EBDD
:10246000800000EB800063689B00B0FBF3F0A7FBEB
:102470000030400908FB10684FEA081808F13208DC
:10248000A7FB0837C7F3431723682F449F60BDE8B5
:10249000F88300BF001001401F85EB512DE9F0418A
:1024A00005460F4616469846069C2B681B6837EA79
:1024B00003030CBF01230023B3421DD1B4F1FF3F3E
:1024C000F3D02CB1FEF782F8A0EB0800A042ECD9C3
:1024D0002A68D36823F4D073D3602A68536923F041
:1024E00001035361202385F8393085F83A30002301
:1024F00085F83830032000E00020BDE8F08158B3B3
:1025000010B5044690F839300BB3242384F83930E1
:102510002268D36823F40053D3602046FFF724FEDB
:102520002268136923F4904313612268536923F0EE
:102530002A0353612268D36843F40053D360002018
:10254000E063202384F8393084F83A3010BD80F8F5
:1025500038300AF0CDFFD8E701207047002830D08E
:1025600010B5044690F8393033B3242384F8393059
:102570002268D36823F40053D3602046FFF7F4FDAC
:102580002268136923F4904313612268536923F08E
:10259000220353612268536943F0080353612268A0
:1025A000D36843F40053D3600020E063202384F811
:1025B000393084F83A3010BD80F838300AF098FF8E
:1025C000D3E7012070472DE9F04182B01E4690F814
:1025D0003930DBB2202B55D104460D4690460029F8
:1025E00055D0002A55D090F83830012B53D0012314
:1025F00080F838300023C363212380F83930FDF799
:10260000E5FF0746A4F82480A4F8268010E0009691
:102610003B46002280212046FFF740FF00283CD1A6
:102620002B882268C3F3080353602369C3B90235BA
:10263000E38C9BB2B3B1E38C013B9BB2E384A36810
:10264000B3F5805FE3D000963B4600228021204610
:10265000FFF724FF18BB2A7823685A600135E7E7A3
:102660000135E5E700963B46002240212046FFF772
:1026700015FF0346A8B9202284F83920002284F8E7
:10268000382000E00223184602B0BDE8F0810123A3
:10269000F9E70123F7E70223F5E70323F3E7032331
:1026A000F1E70323EFE7842801D0033070470020CF
:1026B0007047EFF30580003018BF0120704708B560
:1026C00000F0FEFF002008BD08B5FFF7F2FF10B9CB
:1026D00001F03AF808BD01F03DF8FBE7F0B585B030
:1026E0000F46446805680669B0F90800FFF7DBFF8C
:1026F00003AB019300903B46B2B22946204600F05E
:102700003FFF012802D1039805B0F0BD0020FBE790
:1027100008B500F067FF002008BD08B5034600B902
:102720000123184601F01EF9002008BD08B501205C
:1027300000F0C4FB08BD000030B583B00023019356
:1027400060B30C460546B1F1FF3F02D019B91C46F3
:1027500001E04FF0FF34FFF7ACFF90B101AA002178
:10276000284600F047FD01281AD1019BD3B10E4B3A
:102770004FF080521A60BFF34F8FBFF36F8F00206E
:1027800008E0002322461946284600F061FC012893
:1027900002D1002003B030BDFF20FBE78020F9E725
:1027A000FF20F7E70020F5E704ED00E010B582B068
:1027B000044600230193FFF77CFF88B101A920465E
:1027C00000F0EDFB012816D1019BB3B10D4B4FF08A
:1027D00080521A60BFF34F8FBFF36F8F002008E065
:1027E00000231A461946204600F09EFA012806D119
:1027F000002002B010BDFF20FBE70020F9E7FF201A
:10280000F7E700BF04ED00E010B501290DD1032268
:102810000021012000F064FA044620B100231A468A
:10282000194600F081FA204610BD0024FBE70000A5
:1028300030B583B00023019360B30C460546B1F177
:10284000FF3F02D019B91C4601E04FF0FF34FFF7FB
:1028500030FF90B101AA0021284600F0CBFC0128EE
:102860001AD1019BD3B10E4B4FF080521A60BFF3C7
:102870004F8FBFF36F8F002008E0002322461946D8
:10288000284600F0E5FB012802D1002003B030BD4E
:10289000FF20FBE78020F9E7FF20F7E70020F5E7BE
:1028A00004ED00E010B582B0044600230193FFF769
:1028B00000FF88B101A9204600F071FB012816D164
:1028C000019BB3B10D4B4FF080521A60BFF34F8F95
:1028D000BFF36F8F002008E000231A4619462046F8
:1028E00000F022FA012806D1002002B010BDFF201E
:1028F000FBE70020F9E7FF20F7E700BF04ED00E069
:1029000010B50446FFF7D5FE20B9204600F0FCFCC8
:10291000002010BD8220FCE708B500224168006855
:1029200000F0DEF908BD000030B585B00446019125
:1029300000230393154602B90125FFF7BAFE98B1AB
:10294000002303AA01A9204600F0C3FA012818D1E8
:10295000039BC3B10D4B4FF080521A60BFF34F8FF2
:10296000BFF36F8F002008E000232A4601A920460C
:1029700000F0DAF9012802D1002005B030BDFF20B7
:10298000FBE7FF20F9E70020F7E700BF04ED00E0D8
:1029900070B584B0044602910023019349B10D46FD
:1029A000164600230393B2F1FF3F0BD062B91E46D7
:1029B0000AE004AB802243F8102D93E8070084E876
:1029C00007002BE04FF0FF36FFF773FEB0B103AA0C
:1029D00001A9284600F00EFC01280CD0002300932A
:1029E000039BB3B1114B4FF080521A60BFF34F8F6E
:1029F000BFF36F8F0DE010230093F1E70023324601
:102A000001A9284600F024FB01280AD066B900235A
:102A100000936B4693E8070084E80700204604B063
:102A200070BD10230093F4E74023F1E704ED00E0CC
:102A300008B501F0FBF8012801D001F093FA08BDB8
:102A400010B50446FFF735FE18B9204600F027FC04
:102A500010BD204600F036FCFAE710B50446FFF73B
:102A600028FE20B9204600F04FFC002010BD822037
:102A7000FCE700F1080343604FF0FF328260C3605F
:102A800003610023036070470023036170474368BC
:102A90004B609A688A609A6851609960086103681F
:102AA00001330360704730B40D68B5F1FF3F02D0C9
:102AB00000F1080202E0026904E01A4653681C684B
:102AC000AC42FAD953684B6099608A6051600861E2
:102AD00003680133036030BC704703694268816852
:102AE00091608268416851605A68824205D0002234
:102AF0000261186801381860704782685A60F6E70A
:102B000010B5044601F0BEF9A26BE36B9A4204D003
:102B1000002401F0D9F9204610BD0124F9E710B5D1
:102B2000044601F0AFF9A36B23B1002401F0CCF906
:102B3000204610BD0124F9E770B504461646856BA2
:102B4000026C5AB903681BB100200135A56370BD42
:102B5000406801F0D1F800236360F6E76EB9806841
:102B60000AF04FFF226CA3681344A360626893428B
:102B700019D32368A3600020E7E7C0680AF041FF8B
:102B8000226C5242E3681344E36021688B4202D214
:102B900063681A44E260022E01D00020D5E725B117
:102BA000013D0020D1E70020CFE70020CDE7026CF7
:102BB00072B110B5C3681344C3604468A34201D323
:102BC0000368C3600C46C16820460AF01AFF10BDB6
:102BD000704738B5054601F055F995F8454064B29F
:102BE00003E001F01BF8013C64B2002C08DD6B6AC5
:102BF00033B105F1240000F07BFF0028F3D0F0E7AB
:102C0000FF2385F8453001F05FF901F03BF995F8B5
:102C1000444064B203E001F001F8013C64B2002CCE
:102C200008DD2B6933B105F1100000F061FF0028C9
:102C3000F3D0F0E7FF2385F8443001F045F938BDC3
:102C400038B540B94FF0500383F31188BFF36F8F4D
:102C5000BFF34F8FFEE704460D4601F013F92168DC
:102C6000E26B236C03FB021060600020A063A16094
:102C7000013A02FB0313E360FF2384F8443084F835
:102C80004530A5B923691BB901F01EF9012038BDF3
:102C900004F1100000F02CFF0028F5D0084B4FF095
:102CA00080521A60BFF34F8FBFF36F8FECE704F1D0
:102CB0001000FFF7DEFE04F12400FFF7DAFEE3E781
:102CC00004ED00E010B5029B0C4639B11A60D863E0
:102CD0001C6401211846FFF7B3FF10BD1B60F6E727
:102CE00040B94FF0500383F31188BFF36F8FBFF3E8
:102CF0004F8FFEE7F0B583B0054611B101FB00F040
:102D000000E0002017460C46483001F049FA06461C
:102D100038B100903B4600F1480221462846FFF7B3
:102D2000D1FF304603B0F0BDF0B585B0019260B17F
:102D3000044699B9026C8AB14FF0500383F31188AD
:102D4000BFF36F8FBFF34F8FFEE74FF0500383F356
:102D50001188BFF36F8FBFF34F8FFEE7022B0BD1AC
:102D6000E26B012A08D04FF0500383F31188BFF3C0
:102D70006F8FBFF34F8FFEE71E460F4600F056FFE2
:102D800050B9019B53B14FF0500383F31188BFF347
:102D90006F8FBFF34F8FFEE700253AE0002538E044
:102DA000324639462046FFF7C7FE636A4BB9A8B1E1
:102DB0003B4B4FF080521A60BFF34F8FBFF36F8FC2
:102DC0000CE004F1240000F093FE38B1344B4FF0D6
:102DD00080521A60BFF34F8FBFF36F8F01F074F80A
:102DE000012005B0F0BD01F06FF80020F9E702A85E
:102DF00000F0C0FE012519E0002384F8443021E0F2
:102E0000002384F8453023E02046FFF7E2FE00F07F
:102E100031FD01F037F8A26BE36B9A42C0D3022E6A
:102E2000BED0019B002BDED0002DE0D001F04CF88D
:102E300000F080FC01F026F894F844305BB2B3F166
:102E4000FF3FD9D094F845305BB2B3F1FF3FD7D004
:102E500001F03AF801A902A800F0A0FEC8B9204686
:102E6000FFF74EFE0028CFD0019904F1100000F0CA
:102E700025FE2046FFF7ADFE00F0FCFC0028C8D17F
:102E8000074B4FF080521A60BFF34F8FBFF36F8F25
:102E9000BFE72046FFF79DFE00F0ECFC0020A0E716
:102EA00004ED00E048B108B5002141600160C16057
:102EB0000B460A46FFF738FF08BD704710B50246BB
:102EC00000210120FFF70CFF0446FFF7EBFF20462F
:102ED00010BD2DE9F84360B1044699B9006C88B182
:102EE0004FF0500383F31188BFF36F8FBFF34F8F01
:102EF000FEE74FF0500383F31188BFF36F8FBFF3EA
:102F00004F8FFEE7022B0BD1E06B012808D04FF06A
:102F1000500383F31188BFF36F8FBFF34F8FFEE72A
:102F20001F469046894601F0BDF8EFF311864FF039
:102F3000500383F31188BFF36F8FBFF34F8FA26BE2
:102F4000E36B9A4203D3022F01D000200FE094F8E4
:102F500045506DB23A4649462046FFF7EDFDB5F1C2
:102F6000FF3F08D06B1C5BB284F84530012086F32C
:102F70001188BDE8F883636A5BB104F1240000F0B6
:102F8000B7FD40B1B8F1000F07D00120C8F800002C
:102F9000EDE70120EBE70120E9E70120E7E760B179
:102FA00070B50446036C8BB14FF0500383F3118866
:102FB000BFF36F8FBFF34F8FFEE74FF0500383F3E4
:102FC0001188BFF36F8FBFF34F8FFEE703682BB3FA
:102FD0000E4601F067F8EFF311854FF0500383F3CD
:102FE0001188BFF36F8FBFF34F8FA26BE36B9342D8
:102FF00026D994F845305BB20132A263B3F1FF3FAA
:1030000018D1636AF3B104F1240000F071FDD8B166
:10301000E6B10120306085F3118870BD4368002B54
:10302000D6D04FF0500383F31188BFF36F8FBFF3F7
:103030004F8FFEE701335BB284F845300120EAE7A9
:103040000020E8E70120E6E70120E4E70120E2E7CD
:103050002DE9F04184B0019260B1044699B9026C47
:103060008AB14FF0500383F31188BFF36F8FBFF322
:103070004F8FFEE74FF0500383F31188BFF36F8F3C
:10308000BFF34F8FFEE71F46884600F0CFFD50B9D3
:10309000019B53B14FF0500383F31188BFF36F8F3F
:1030A000BFF34F8FFEE700265FE000265DE0E66895
:1030B00041462046FFF77BFDDFB9013DA56323684C
:1030C00013B900F071FE6060236963B104F1100070
:1030D00000F00EFD38B1464B4FF080521A60BFF33E
:1030E0004F8FBFF36F8F00F0EFFE012004B0BDE8FB
:1030F000F081E660636A002BF5D004F1240000F053
:10310000F7FC0028EFD03A4B4FF080521A60BFF323
:103110004F8FBFF36F8FE6E700F0D6FE0020E5E7A4
:1031200002A800F027FD012629E0002384F844309E
:1031300031E0002384F8453033E000F0A3FE6068FE
:1031400000F084FD00F0C0FE3BE02046FFF741FDAB
:1031500000F090FB09E02046FFF73BFD00F08AFB02
:103160002046FFF7DCFC002840D100F08BFEA56B69
:10317000002D9CD1019B002BCED0002ED0D000F092
:10318000A3FE00F0D7FA00F07DFE94F844305BB265
:10319000B3F1FF3FC9D094F845305BB2B3F1FF3FC4
:1031A000C7D000F091FE01A902A800F0F7FC0028AA
:1031B000D1D12046FFF7B3FC0028C6D02368002BEE
:1031C000BBD0019904F1240000F078FC2046FFF701
:1031D00000FD00F04FFB0028C7D1054B4FF0805297
:1031E0001A60BFF34F8FBFF36F8FBEE700207DE7FC
:1031F00004ED00E02DE9F84360B1044699B9036C91
:103200008BB14FF0500383F31188BFF36F8FBFF37F
:103210004F8FFEE74FF0500383F31188BFF36F8F9A
:10322000BFF34F8FFEE71746894600F03BFFEFF3F1
:1032300011864FF0500383F31188BFF36F8FBFF3F4
:103240004F8FD4F83880B8F1000F1DD094F8445057
:103250006DB249462046FFF7AAFC08F1FF33A3638D
:10326000B5F1FF3F05D06B1C5BB284F84430012000
:103270000BE023696BB104F1100000F039FC50B190
:103280005FB10120386000E0002086F31188BDE8BE
:10329000F8830120F9E70120F7E70120F5E740B9BD
:1032A0004FF0500383F31188BFF36F8FBFF34F8F3D
:1032B000FEE710B5044600F0E5FDA46B00F004FE47
:1032C000204610BD08B1806B70474FF0500383F368
:1032D0001188BFF36F8FBFF34F8FFEE70023072BDB
:1032E0000FD8084A02EBC3025268824201D0013370
:1032F000F5E7044A002142F8331002EBC30359609A
:1033000070477047A428012040B94FF0500383F361
:103310001188BFF36F8FBFF34F8FFEE710B50446E0
:10332000FFF7DCFF204600F0B5FF10BD074B9B6A9E
:103330001B6833B1054B9A6AD268D2685268DA6268
:103340007047024B4FF0FF32DA6270479C0000205A
:1033500010B50446006B00F09DFF204600F09AFF78
:1033600010BD2DE9F04781460D4617469A46089E46
:10337000DDF824800A9C9200A521206B0AF04CFB0A
:10338000236B07F18042013A03EB820727F007071E
:1033900000230F2B07D8E95CE21882F83410EA5CAE
:1033A0000AB10133F5E7002384F84330062E00D933
:1033B0000626E66266640025A564201DFFF764FB0F
:1033C00004F11800FFF760FB2461C6F10706A6614F
:1033D0006462E56484F8505052464946384600F02D
:1033E00027FD2060B8F1000F01D0C8F80040BDE80B
:1033F000F087000070B5002407E004EB840293001E
:1034000010481844FFF735FB0134062CF5D90E4C53
:1034100004F1BC063046FFF72CFB04F1D00528462A
:10342000FFF727FB04F11400FFF723FB04F1E4008E
:10343000FFF71FFB2046FFF71CFBA662C4F8F850FD
:1034400070BD00BFCC0000209C00002038B50546B0
:1034500000F018FD264BD3F8FC200132C3F8FC2005
:10346000D3F8003173B1224BD3F804318BB9204B20
:10347000D3F80031DA6AEB6A9A420AD81C4BC3F8D7
:10348000005106E01A4BC3F80051D3F8FC30012B71
:103490002AD0174CD4F808310133C4F80831EB6A4C
:1034A00001229A40D4F80C110A43C4F80C2104F10B
:1034B000300003EB83039A00291D1044FFF7E7FA5D
:1034C00000F002FDD4F804316BB1D4F80031DA6AAF
:1034D000EB6A9A4207D2074B4FF080521A60BFF353
:1034E0004F8FBFF36F8F38BDFFF784FFD1E700BF69
:1034F0009C00002004ED00E070B504460E461F4B12
:10350000D3F81051D3F800010430FFF7E6FA60B9A0
:103510001A4BD3F80021D16A012202FA01F1D3F843
:103520000C2122EA0102C3F80C21B4F1FF3F12D0B2
:103530002C44124BD3F800315C60A54214D80F4DD7
:10354000A86AD5F800110431FFF7ADFAEB6AA3427F
:1035500012D9EC6210E0002EEAD00848D0F8001131
:103560000431FFF794FA07E0044BD3F8F800D3F8DE
:1035700000110431FFF797FA70BD00BF9C000020D6
:103580002DE9F04385B007468846154699469000D8
:1035900000F006FEF8B10646542000F001FE044695
:1035A000A8B10663D4B10023039302940D9B019349
:1035B0000C9B00934B462A4641463846FFF7D1FE06
:1035C0002046FFF743FF012005B0BDE8F0833046F9
:1035D00000F060FEE6E74FF0FF30F5E74FF0FF3018
:1035E000F2E7000070B5044600F04CFC002C3DD022
:1035F000261D3046FFF771FA88B9E26A02EB8203B2
:1036000099002D4B0B441B6B4BB9012303FA02F2BB
:103610002949D1F80C3123EA0203C1F80C31A36A1D
:103620001BB104F11800FFF758FA234BD3F8082117
:103630000132C3F80821D3F80031A3421AD01E4A40
:10364000D2F8FC30013BC2F8FC302046FFF780FE88
:10365000FFF76CFE00F038FC174BD3F8043123B1B0
:10366000154BD3F80031A34210D070BD124BD3F8E4
:103670000041BDE7104D314605F1E400FFF707FAC0
:10368000D5F814310133C5F81431E3E70A4BD3F808
:10369000183143B14FF0500383F31188BFF36F8F9C
:1036A000BFF34F8FFEE7054B4FF080521A60BFF318
:1036B0004F8FBFF36F8FD8E79C00002004ED00E030
:1036C00000B583B0174B0193002300938022164965
:1036D0001648FFF755FF012805D0B0F1FF3F17D07E
:1036E00003B05DF804FB4FF0500383F31188BFF380
:1036F0006F8FBFF34F8F0E4B4FF0FF32DA62012214
:10370000C3F804210022C3F8102100F057FCE7E7BA
:103710004FF0500383F31188BFF36F8FBFF34F8FC8
:10372000FEE700BFB801002034ED0008053A0008AC
:103730009C000020034AD2F818310133C2F8183136
:10374000704700BF9C000020014BD3F81001704768
:103750009C00002008B500F0A5FC024BD3F8100136
:1037600008BD00BF9C0000202DE9F041404BD3F87C
:103770001831002B6CD13E4BD3F810510135C3F8F2
:103780001051CDB99B6A1B6843B14FF0500383F3CE
:103790001188BFF36F8FBFF34F8FFEE7344B9A6AE8
:1037A000D3F8F8109962C3F8F820D3F82021013239
:1037B000C3F82021FFF7BAFD2D4BDB6AAB423DD9A0
:1037C00000242B4AD2F80031DB6A03EB8303990013
:1037D0000A44136B012B42D9012440E00124244BFD
:1037E0009B6A1B6863B3224B9B6ADB68DE68736865
:1037F0009D422AD306F104084046FFF76EF9B36AEA
:103800001BB106F11800FFF768F9F36A01229A402C
:10381000174FD7F80C110A43C7F80C2107F13000F5
:1038200003EB83039A0041461044FFF730F9F26A34
:10383000D7F80031DB6A9A42D0D2D0E70024CEE735
:103840000B4B4FF0FF32DA62BBE7094AD362B8E7AD
:10385000074AD2F824310133C2F824310024044B42
:10386000D3F8283103B101242046BDE8F08100BF20
:103870009C000020394BD3F8183143B94FF0500366
:1038800083F31188BFF36F8FBFF34F8FFEE770B5DF
:1038900000F0F8FA314BD3F81821013AC3F8182197
:1038A000D3F81831002B54D12C4BD3F8FC3023B96A
:1038B000002400F009FB204670BD0024274B5B6903
:1038C0002BB3264D2B6ADC6804F11800FFF705F9CD
:1038D000261D3046FFF701F9E36A01229A40D5F828
:1038E0000C110A43C5F80C2105F1300003EB8303EA
:1038F0009A0031461044FFF7CAF8E26AD5F8003161
:10390000DB6A9A42DAD30122C5F82821D6E70CB146
:10391000FFF70CFD114BD3F8244164B1FFF724FFEE
:1039200018B10E4B0122C3F82821013CF6D10B4BF4
:103930000022C3F82421094BD3F828315BB1084B8E
:103940004FF080521A60BFF34F8FBFF36F8F012487
:10395000AFE70024ADE70024ABE700BF9C000020E8
:1039600004ED00E010B5B0B104460F4BD3F81831A8
:1039700043B14FF0500383F31188BFF36F8FBFF350
:103980004F8FFEE7FFF7D6FE00212046FFF7B4FD7C
:10399000FFF770FF38B9054B4FF080521A60BFF344
:1039A0004F8FBFF36F8F10BD9C00002004ED00E02F
:1039B00038B5134BD3F814310BB3FFF7BBFE104BE4
:1039C000D3F8E440FFF756FF002CF2D000F05AFA8B
:1039D0000B4CD4F8F030DD68281DFFF77EF8D4F8E2
:1039E000FC30013BC4F8FC30D4F81431013BC4F87E
:1039F000143100F069FA2846FFF7AAFCD9E738BD70
:103A00009C00002008B5FFF7D3FF064B1B6B012B72
:103A1000F9D9054B4FF080521A60BFF34F8FBFF3B7
:103A20006F8FF0E79C00002004ED00E0224BD3F8FC
:103A3000183123B1204B0122C3F8282170471E4AB8
:103A40000023C2F82831D2F80C31B3FA83F3DBB289
:103A5000C3F11F0303EB830081000A44126B42B9D8
:103A60004FF0500383F31188BFF36F8FBFF34F8F75
:103A7000FEE710B4104A9900CC18A0001044446B23
:103A80006468446330321944880008300244944228
:103A90000BD0094903EB83039A000A44536BDB689C
:103AA000C1F800315DF8044B704761680248142288
:103AB00002FB03025163ECE79C00002040B94FF089
:103AC000500383F31188BFF36F8FBFF34F8FFEE76F
:103AD00010B50C46054BD3F800111831FEF7E3FF83
:103AE00001212046FFF708FD10BD00BF9C0000200B
:103AF00038B5C368DC6844B94FF0500383F31188CC
:103B0000BFF36F8FBFF34F8FFEE704F11805284610
:103B1000FEF7E3FF154BD3F8183103BB251D2846EC
:103B2000FEF7DBFFE36A01219940104AD2F80C014D
:103B30000143C2F80C11303203EB8303980029468D
:103B40001044FEF7A4FFE26A084BD3F80031DB6AA9
:103B50009A4209D90120054BC3F8280138BD2946EE
:103B60000348FEF794FFEEE70020F7E79C000020F3
:103B7000B000002038B1084AD2F820110160D2F814
:103B80001021426070474FF0500383F31188BFF358
:103B90006F8FBFF34F8FFEE79C00002038B550B108
:103BA000044689B94FF0500383F31188BFF36F8F38
:103BB000BFF34F8FFEE74FF0500383F31188BFF33D
:103BC0006F8FBFF34F8FFEE70D4600F05BF9124B8E
:103BD000D3F810112B68B3F1FF3F19D020680E4ABB
:103BE000D2F82021904202D062688A4212D96268DB
:103BF000881A834204D8012400F066F9204638BDB3
:103C0000521A13442B602046FFF7B4FF0024F3E759
:103C10000024F1E70124EFE79C000020024B012281
:103C2000C3F82821704700BF9C000020064BD3F842
:103C300004313BB1044BD3F818310BB1002070476D
:103C400002207047012070479C00002000284DD0C2
:103C500038B50546C26A2649D1F80011C96A8A42B8
:103C600016D28169002906DB2149D1F80011C96A01
:103C7000C1F107018161686902EB820291001D4A6E
:103C80000A44904205D01A4AD2F80021D26AEA6268
:103C900038BD2C1D2046FEF720FFA0B11448D0F8F7
:103CA0000031DB6AEB6201229A40D0F80C110A4322
:103CB000C0F80C21303003EB83039A0021461044F6
:103CC000FEF7E5FEE4E7EA6A02EB82039900084B9F
:103CD0000B441B6B002BE1D1012393400449D1F825
:103CE0000C2122EA0302C1F80C21D7E7704700BF7C
:103CF0009C000020CC00002000284DD038B50446A0
:103D0000284AD2F80021824208D04FF0500383F3B2
:103D10001188BFF36F8FBFF34F8FFEE7826C42B9FC
:103D20004FF0500383F31188BFF36F8FBFF34F8FB2
:103D3000FEE7013A8264C06A616C88422ED07ABB89
:103D4000251D2846FEF7C9FE78B9E26A15491423F5
:103D500003FB02131B6B43B9012303FA02F2D1F8F0
:103D60000C3123EA0203C1F80C31626CE262C2F149
:103D70000703A361012404FA02F10A4BD3F80C01F2
:103D80000143C3F80C1130332946142000FB0230E4
:103D9000FEF77DFE204638BD002070470020FAE780
:103DA0000020F8E79C000020064BD3F800312BB12F
:103DB000044BD3F80021936C01339364014BD3F887
:103DC000000170479C0000200B4B1B68B3F1FF3FC4
:103DD00008D04FF0500383F31188BFF36F8FBFF308
:103DE0004F8FFEE74FF0500383F31188BFF36F8FBF
:103DF000BFF34F8FFEE700BF0800002006480068B1
:103E0000006880F3088862B661B6BFF34F8FBFF3D6
:103E10006F8F00DF00BF000008ED00E0DFF80C004E
:103E2000016841F4700101607047000088ED00E016
:103E30004FF0807340F8043C21F0010140F8081C69
:103E4000054B40F80C3C40F8202C6FF0020340F882
:103E5000243C4438704700BFC93D00080000000002
:103E6000074B19680868B0E8F04F80F30988BFF382
:103E70006F8F4FF0000080F311887047AFF3008020
:103E80009C0100204FF0500383F31188BFF36F8F24
:103E9000BFF34F8F0A4A136801331360012B00D020
:103EA0007047084B1B6813F0FF0FF9D04FF0500319
:103EB00083F31188BFF36F8FBFF34F8FFEE700BF0F
:103EC0000800002004ED00E0094B1B6843B94FF0E7
:103ED000500383F31188BFF36F8FBFF34F8FFEE75B
:103EE000013B034A13600BB983F31188704700BF8D
:103EF000080000200000000000000000000000009A
:103F0000EFF30980BFF36F8F154B1A681EF0100F87
:103F100008BF20ED108A20E9F04F10604DF8043DF5
:103F20004FF0500080F31188BFF34F8FBFF36F8FB6
:103F3000FFF77CFD4FF0000080F3118808BC196882
:103F40000868B0E8F04F1EF0100F08BFB0EC108A00
:103F500080F30988BFF36F8F704700BFAFF3008015
:103F60009C01002008B54FF0500383F31188BFF384
:103F70006F8FBFF34F8FFFF7F7FB18B1034B4FF075
:103F800080521A60002383F3118808BD04ED00E01D
:103F9000064B1B68064AA2FB03239B09013B054A0B
:103FA0001360054B07221A60704700BF18000020FD
:103FB000D34D621014E000E010E000E0314B1A68CD
:103FC000314B9A420DD02F4B1A68304B9A4211D187
:103FD0004FF0500383F31188BFF36F8FBFF34F8F00
:103FE000FEE74FF0500383F31188BFF36F8FBFF3E9
:103FF0004F8FFEE700B583B0254B1A78D2B20192FD
:10400000FF221A701B78DBB28DF803309DF8033065
:1040100003F050031F4A1370072353609DF80330C9
:1040200013F0800F0AD01B4A5368013B53609DF880
:1040300003305B00DBB28DF80330EFE7154A5368BD
:104040001B0203F4E0635360019BDBB2104A137060
:10405000114B1A6842F470021A601A6842F07042FA
:104060001A60FFF795FF0D4B00221A60FFF7D6FE8E
:104070000B4A136843F040431360FFF7BFFEFFF79E
:10408000A3FE00BF00ED00E071C20F4170C20F41FE
:1040900000E400E0C801002020ED00E0080000205E
:1040A00034EF00E0EFF305830F2B0FD9104A9B5C30
:1040B000DBB2104A12789A4208D94FF0500383F3CA
:1040C0001188BFF36F8FBFF34F8FFEE70A4B1B685A
:1040D00003F4E063074A5268934208D94FF0500353
:1040E00083F31188BFF36F8FBFF34F8FFEE77047E5
:1040F000F0E300E0C80100200CED00E0104A12F0EF
:10410000070F1BD0D11D21F00701C1F59233F83301
:1041100013440A460B490A60002048601344083BD8
:1041200023F007038B6058601860981A5060136082
:10413000C86008614FF000434B617047024BE9E7EC
:10414000E8010020D0010020F824010010B4134B36
:104150001A6882421BD359685C18844203D14068B4
:1041600001445960184641684418A24213D10B4CCF
:10417000A468A2420DD05268114441601A681268C6
:104180000260984200D018605DF8044B70471346F7
:10419000DEE70460F5E70260F3E700BFD00100202E
:1041A00070B50446FFF7C6FA394B9B68BBB1384B74
:1041B0005B691C4262D1ACB1083414F0070F11D016
:1041C00024F00704083404F007035BB14FF05003F8
:1041D00083F31188BFF36F8FBFF34F8FFEE7FFF7B5
:1041E0008DFFE4E7002C4BD0294B1B69A34249D338
:1041F000274B1D6801E02B4615466A68A24202D291
:104200002A68002AF7D1224A9268AA423CD01E6846
:1042100008362A681A606B681B1B102B10D92819E6
:1042200010F0070F08D04FF0500383F31188BFF34D
:104230006F8FBFF34F8FFEE743606C60FFF786FF21
:104240006968134A13695B1A1361D268934201D2F9
:104250000F4AD3600E4B5B690B436B6000232B60EE
:10426000FFF708FB16F0070F10D04FF0500383F351
:104270001188BFF36F8FBFF34F8FFEE70026EFE784
:104280000026EDE70026EBE70026E9E7304670BDA3
:10429000D001002080B338B50446A0F1080550F8DD
:1042A000042C164949690A4208D14FF0500383F3A0
:1042B0001188BFF36F8FBFF34F8FFEE750F8080CE4
:1042C00040B14FF0500383F31188BFF36F8FBFF3FA
:1042D0004F8FFEE722EA010244F8042CFFF72AFA86
:1042E00054F8041C054A13690B4413612846FFF770
:1042F0002DFFFFF7BFFA38BD704700BFD001002087
:1043000010B50C460A680C3201F0BEFB034608B932
:1043100094F90430184610BD00B587B060B1019023
:104320008DF80C1029238DF80D3001A90748FFF7EF
:10433000E7FF07B05DF804FB054B4FF44A720549EF
:10434000054809F071FB6FF00F00F2E769570008AC
:104350003CED000870ED00088CED000870B586B0EB
:1043600000230593B1B104460D4600230B60D8B17C
:10437000037803F0F003102B20D004F11006304630
:1043800007F0F9FD40B394F9080010F10C0F2DDA95
:1043900006B070BD3A4B40F2E7123A493A4809F08C
:1043A00043FB6FF00F00F3E7354B40F2E91237495A
:1043B000354809F039FB6FF00F00E9E7103007F0DE
:1043C000DAFD0028D9D104F1140007F0D4FD00284B
:1043D00053D06FF00A00DBE7294B40F2F5122C496D
:1043E000294809F021FB6FF00A00D1E7002205A956
:1043F000304607F080FD237803F0F003102B0ED039
:10440000059B002B31D0059B1B681A89A36A13B149
:10441000012120469847059B2B600020B8E70094B7
:10442000059B4BB11B89029369461A48FFF768FF49
:10443000059B23B11A89E9E701230293F4E7A36AF4
:104440001BB10022012120469847636833B994F9D3
:10445000080000289CD16FF00D0099E7012120464B
:10446000FFF75AFF6FF00E0092E7054B40F23E2235
:104470000949054809F0D8FAC5E76FF00E0087E74B
:104480003CED0008B4ED00088CED0008D4ED000808
:10449000F0ED00081156000810EE000870B586B067
:1044A0000D46114600F066FE044640B18DF80C50F2
:1044B00006A941F8140D2048FFF722FF10B9204645
:1044C00006B070BD63682BB11C4B89221C491D4886
:1044D00009F0AAFA04F11005284607F04CFDB0B126
:1044E00004F1140007F047FDC0B904F10C06304692
:1044F00007F08BFDC8B1304607F082FD284607F073
:10450000DBFC2146072001F0E1FD0024D7E70B4B3F
:104510008A220D490B4809F087FAE1E7074B8C2204
:104520000A49084809F080FADFE7044B8F2208495E
:10453000044809F079FADEE7415100083CED000833
:104540001CEE00088CED000840EE000858EE000854
:104550007CEE000830B587B070B104460190292385
:104560008DF80D3001A90648FFF7CAFE054620B9AF
:10457000204600F045FE00E00025284607B030BD8B
:104580002153000800B587B060B1034699B101938B
:104590000391ADF8102001A90848FFF7B1FE07B05C
:1045A0005DF804FB064BFF220649074809F03CFA78
:1045B0006FF00F00F3E70549E9E700BF91540008E9
:1045C0003CED0008F8EE00088CED0008B4EC0008A3
:1045D00000B587B060B10346A1B101930391ADF876
:1045E000102001A90848FFF78BFE07B05DF804FB17
:1045F000064B40F22B120649064809F015FA6FF0F7
:104600000F00F2E70449E8E7F55400083CED000824
:1046100014EF00088CED0008B4EC000870B582B00F
:1046200079B104460D4600230B60A0B1037803F076
:10463000F003102B19D0FFF791FE0446204602B07C
:1046400070BD1E4B4FF41D721D491E4809F0ECF958
:104650006FF00F04F2E7194B40F276221A4919481D
:1046600009F0E2F96FF00F04E8E700230193062058
:1046700001F012FD0646E8B101A92046FFF76EFEE3
:10468000044650B9019B6BB1019B3360019B736081
:104690000023B381B3602E60D0E73146062001F0DD
:1046A00015FDCBE7054B40F28A220849054809F081
:1046B000BBF9E9E74FF0FF34C0E700BF3CED00086D
:1046C000B4ED00088CED0008D4ED0008DCF1000822
:1046D00070B586B088B115460446027802F0F00243
:1046E000102A14D1002D39D0027F12F0020F18D1F8
:1046F00013F0040F2CD0012214E01C4B40F2E622F0
:104700001B491C4809F090F96FF00F0327E0174B85
:1047100040F2E7221849174809F086F96FF00503BF
:104720001DE0012202F0FF060AB10A9AD2B10194FB
:1047300003918DF81430049501A91048FFF7E0FDAE
:10474000034660B90A9A52B126B90A9A156006E082
:104750000022E7E7049A0A990A6000E0002318465D
:1047600006B070BD6FF00503F9E700BF3CED00082F
:10477000D4EF00088CED0008F0EF0008695600083F
:1047800008B50321FFF7C8FD08BD00002DE9F04181
:104790000446154698460E4679B3002C34D0002CBA
:1047A00039D06368B34205D0244BBA222449254846
:1047B00009F03AF904F11007384607F0DCFB70B352
:1047C000062001F069FC064670B305604560B8F14B
:1047D000000F2DD0D8F80030B360BDF81830B38189
:1047E0002D893146384607F07CFB18BBA36ACBB154
:1047F0002A4600212046984714E0104BB122124966
:10480000104809F011F9C8E70C4BB2220F490D48C6
:1048100009F00AF9C3E7284601F02AFE02E028461B
:1048200001F026FEBDE8F081284601F021FEF9E7FF
:104830000023D1E7304601F011F8F3E714F0000847
:104840008CF000088CED000848F000086CF00008BF
:1048500010B501464468204602F0BBFA08492046DC
:1048600002F0BAFA0749204602F0D0FA02220649BD
:10487000204602F005FB0549204602F0DFFA10BD94
:1048800071500008FD4F00087D4F000819490008CD
:1048900038B5044603685B6833B11B4B4FF40B72A9
:1048A0001A491B4809F0C0F825682B7803F0F0037B
:1048B000102B18D0202B21D1002005F0EBFE6860D2
:1048C00023685A6842B11B78222B09D023681A4604
:1048D0001049586805F0B0FE23685B688BB138BD9D
:1048E00001231374F2E7002003F03CF868602068AD
:1048F0004368002BF0D0FFF7ABFFEDE7FA232371FD
:10490000EDE7FF232371EAE714F00008ACF000089C
:104910008CED00088D470008F8B50E460446A0B19E
:104920000023636065786370042D16D1002C47D096
:1049300007F0B0FB94F9083013F10C0F01DB0023F2
:10494000237207F0B3FB00260CE03D4B4FF4C2721C
:104950003C493D4809F068F8E2E707F09BFB267206
:1049600007F0A4FBA36A1BB100220421204698474C
:10497000A36A1BB10022114620469847A36A1BB1C7
:10498000002202212046984704F11007384607F01C
:10499000F2FAB8B904F11407384607F0ECFAB0B9E6
:1049A000012D19D0042D17D0032D15D0636AABB398
:1049B000234B40F2BD122549234809F035F82DE07C
:1049C0000026CFE70021384607F08BFAE2E7002106
:1049D000384607F086FAE3E7237F23F004022277C4
:1049E00013F0040F1AD1636ACBB1636A1E71636A54
:1049F0001D680C35284607F008FBC0B10023636230
:104A00004CB107F047FB94F9083013F10C0F00DBB1
:104A1000267207F04BFB284607F0EDFAF8BD084B6D
:104A200040F2B3120A49084808F0FEFFDDE7044BE4
:104A30004FF4DB720749044808F0F6FFDEE700BFD9
:104A400014F00008CCF000088CED000814F1000808
:104A5000DCF00008F8F0000800285DD070B50446CE
:104A600015464378032B36D1636A002B3BD0636A2B
:104A7000002B44D01D71636A1E680C36237803F046
:104A8000F003102B3DD0237F23F00402227713F094
:104A9000040500D146B905B136B1214B40F2A74219
:104AA0002049214808F0C0FF00236362637007F0CB
:104AB000F1FA94F9083013F10C0F01DB0023237293
:104AC00007F0F4FAA36A1BB100220221204698479E
:104AD000EDB1002070BD124B4FF4936213491248A0
:104AE00008F0A2FFC0E7237F13F0040FBFD10C4BE7
:104AF00040F29A420E490C4808F096FFB7E70026AC
:104B0000BCE7002DBFD12046FFF7A2FEBBE7304631
:104B100007F071FA0020DDE76FF00500704700BF75
:104B200014F0000890F100088CED000830F1000846
:104B300050F100082DE9F84388460446B8B163787F
:104B4000012B1CD1636A13B3636843B3226A636A9F
:104B5000DB689A422BD2626A92F81090237F13F09E
:104B6000020F2CD119F0040F41D0012728E06E4B21
:104B700040F2E3526D496E4808F056FFDFE76A4B9A
:104B800040F2E4526B496A4808F04EFFDAE7664BA0
:104B900040F2E5526849664808F046FFD4E7624BA8
:104BA00040F2E6526549624808F03EFFCEE75E4BB0
:104BB0004FF4BD6262495E4808F036FFCBE701273B
:104BC000FFB29668236A1E44D268D51AB5F5803FB5
:104BD0000FD349F002094FF6FF756168B1F8601014
:104BE0008D420BD93FB1002938D00D4606E0002791
:104BF000E6E7ADB2F1E749F002090D462B449A42CF
:104C000024D34B462A463146606804F071FC0646C0
:104C1000431CDBB2012B24D9002E49D1236A1D4449
:104C20002562636ADA68954200D00FB1DD60012722
:104C3000606804F0F5FF10F10C0F34DB10F1040F85
:104C400031D0002F3AD14FF0FF364FE0364B40F2D3
:104C500013623C49364808F0E7FED2E70D466FF094
:104C6000060677B1636ADB689D420AD2A36A1BB16C
:104C70002A46032120469847237F43F010032377D9
:104C8000CAE76368B3F86020B2F5866F03D3B3F860
:104C90006230042BC0D9A36A002BBDD02A46032161
:104CA00020469847B8E7636A0022DA60064605E0C6
:104CB000B6F1FF3F1DD0636A0022DA60636A1868AC
:104CC00000F10C051E7100236362236263704CB116
:104CD00007F0E0F994F9083013F10C0F00DB2672AD
:104CE00007F0E4F9B8F1000F19D100263046BDE80D
:104CF000F883606804F094FF10F10C0F0ADB10F1E8
:104D0000040F07D0002FF1D0636A0022DA606FF041
:104D10000606D3E7636A0022DA600646CEE7284635
:104D200007F069F90026E1E714F00008CCF000086C
:104D30008CED0008B0F10008DCF00008D0F10008AC
:104D4000E8F100081CF200082DE9F0478846044607
:104D500000287CD0237803F0F003102B7FD16378F8
:104D6000042B40F084806368002B00F08880636A25
:104D7000002B00F08C806668636A1B7A03F00109DF
:104D800003F00207032B0FD0B9F1000F06D0327DDC
:104D9000531FDBB2012B07D9082A05D0002F7ED084
:104DA000B37E13F0100F7CD00021304602F011F8D2
:104DB0004FF0010A337D012B76D0B9F1000F78D185
:104DC000002F7FD1BAF1000F40F08180BAF1000FBF
:104DD00000F08780304602F093FB05461DB1B5F127
:104DE000FF3F00F08580636A1E680C361D7100234A
:104DF00063626370CDB9BAF1000F06D06360A36A35
:104E00001BB10022042120469847B9F1000F05D0BC
:104E1000A36A1BB100221146204698472FB1A36A0E
:104E20001BB100220221204698474CB107F032F90D
:104E300094F9083013F10C0F00DB257207F036F9F6
:104E4000B8F1000F72D100252846BDE8F087404B2D
:104E500040F243323F49404808F0E6FD7AE73C4BD8
:104E60004FF451723D493C4808F0DEFD77E7384B7E
:104E700040F245323A49384808F0D6FD73E7344BE2
:104E800040F246323749344808F0CEFD6FE7304BE8
:104E900040F247323449304808F0C6FD6BE7BA4665
:104EA00088E74FF0000A85E70021304601F0E0FF77
:104EB0008CE70021304601F08FFF0021304601F0E1
:104EC000D7FF7DE70021304601F0A0FF7AE70022FE
:104ED0001146304601F0D4FF0021304601F0AEFF0C
:104EE00074E73A464946304602F0B0FB054675E79E
:104EF000636A5B7A43B9BAF1000F3FF474AF30468E
:104F000002F04CFC00256EE7337D012B13D0D7B99E
:104F100001221649304601F0B3FF1549304601F031
:104F20008DFF2146304601F054FF8DE7304607F0F3
:104F300062F8002588E7064B40F2E3320D49064847
:104F400008F072FDE3E70C49304601F05FFFDFE750
:104F500014F0000868EF00088CED000848F2000823
:104F600068F200088CF20008DCF000087D4F0008B1
:104F700019490008A0F20008FD4F000810B50446CA
:104F8000F0B16378012B23D0042B26D0237F13F0BC
:104F9000100F13D062688AB1B2F86010B1F5866F55
:104FA0000CD3B2F86220042A08D823F01003237728
:104FB000A36A1BB10022022120469847002010BDA1
:104FC0000B4B4FF49C720B490B4808F02DFDD8E7B2
:104FD00001212046FFF7AEFDD8E7636A1BB15A7A7C
:104FE0000AB1013A5A7201212046FFF7ADFECDE722
:104FF00014F00008CCF000088CED000838B5154618
:105000000446E0B1CCB16378012B20D0042B23D02F
:10501000636893B1B3F86020B2F5866F0DD3B3F82F
:105020006230042B09D8237F23F010032377A36A6F
:105030001BB12A46022120469847002038BD094B63
:1050400040F261120849094808F0EEFCDAE7012154
:105050002046FFF76FFDDBE701212046FFF774FED6
:10506000D6E700BF14F00008CCF000088CED000873
:105070002DE9F0410446154698460F46E9B11CB3A8
:10508000002C4AD06368BB4206D0284B4FF4807294
:105090002749284808F0C8FC04F11006304606F0FD
:1050A0006AFFC0B9002D3BD02989384601F024FEA3
:1050B000284601F0DDF900251EE01C4BF9221E49AF
:1050C0001C4808F0B1FCDAE7184BFA221B491948D2
:1050D00008F0AAFCD4E7B8F1000F10D1DDB12F8998
:1050E0002946304606F0FDFE0546D8B9A36A1BB135
:1050F0003A460021204698472846BDE8F08106F050
:10510000C9FF94F9083013F10C0F01DB84F8088013
:1051100006F0CCFFE2E70027E2E76FF00505EBE7DA
:105120000025E9E74FF0FF35E6E700BF14F000087F
:1051300008F300088CED0008C4F20008E8F200084B
:1051400010B504460023037103685B687BB12368D4
:1051500063B106F09FFF236893F9082012F10C0F4A
:1051600002DB94F904201A7206F0A0FF10BDFFF7CD
:105170008FFBECE770B505460E46072000F08CFF6C
:10518000044618B3002303720570436005F0F00570
:10519000102D01D0202D1BD104F110050621284629
:1051A00006F078FED8B9002104F10C0006F0ECFE00
:1051B000D8B904F1140006F0E4FE002363704FF048
:1051C000FF32A261A662636223622377204670BD2C
:1051D000084B4FF42A720849084808F025FC21467C
:1051E000072000F073FF0024F0E7284606F064FE75
:1051F000F5E700BF14F0000828F300088CED000864
:1052000038B50446436833B1164B4FF4387216492B
:10521000164808F009FC04F1100006F0ACFE88B94D
:1052200004F1140006F0A7FEA0B904F10C0528460D
:1052300006F0E6FE284606F0EEFE2146072000F0C6
:1052400045FF38BD074B40F2E2220949074808F004
:10525000EBFBE5E7034B40F2E5220649034808F083
:10526000E3FBE2E714F0000850F300088CED0008BF
:1052700080F30008BCF3000870B582B0044600F16A
:105280001005284606F077FE00BB1434204606F0D1
:1052900072FE00283FD001A9204606F059FEB0F169
:1052A000FF3F32D0019D1D4B9D42F4D02846FFF7B1
:1052B000E3FF686818B102F071FA00236B602846BA
:1052C000FFF79EFFE7E7019800F0C8FA01A928461A
:1052D00006F03EFEB0F1FF3F10D0237803F0F0035C
:1052E000102BF0D1019E002EF0D0606810B13189F2
:1052F00001F002FD304601F0BBF8E7E7284606F072
:10530000DBFD284606F03DFEBFE7204606F0D4FD53
:10531000204606F036FE02B070BD00BFE428012032
:1053200038B5044603685D7825B11B7803F0F003B7
:10533000102B07D175B1022D0CD0032D0AD0FB2301
:1053400023712FE04B4B40F201424B494B4808F090
:105350006BFBEFE7032D3AD0032D3ED000232371E2
:105360002068FFF789FF2268516879B1137803F04C
:10537000F003102B3ED0202B05D10023CB612368F6
:10538000586805F05DF9236800225A602068836A36
:1053900013B10022114698472068836A13B1002296
:1053A0000221984720680C3006F02FFE70B1236868
:1053B00063B106F06FFE236893F9082012F10C0F19
:1053C00002DB94F904201A7206F070FE38BD2368DF
:1053D0001B7F13F0040FBFD1B1E723681B7F13F0CD
:1053E000040FBBD1234B40F21F422549234808F04C
:1053F0001BFBB3E7536A002B2FD01E4B40F2354204
:1054000020491E4808F010FB236804225A70032329
:10541000237223685C6200212068FFF795FC002856
:10542000D4D023685B78042B1BD1174D284606F097
:1054300019FE206800210C3006F0BFFD284606F05A
:105440000AFE23685B78002BC0D00A4B40F23F4233
:105450000E490A4808F0E8FAB8E7136A002BD3D0DF
:10546000CBE7044B40F23B420849044808F0DCFA21
:10547000DBE700BF14F00008F8F300088CED00082B
:105480000CF400082CF40008E828012048F4000877
:1054900010B50446036893F9082012F10C0F10DAD6
:1054A0000271236863B106F0F5FD236893F90820C3
:1054B00012F10C0F02DB94F904201A7206F0F6FDCB
:1054C00010BDFA22027158680028EAD01B7803F058
:1054D000F003102B07D0202BE3D1A289A16805F09F
:1054E0003BF82071DDE7A289A16801F077FB20710C
:1054F000D7E7000038B504460268506860B11378F9
:1055000003F0F003102B19D0202B6AD1A289A168D7
:1055100005F062F8207101E0F1232371236863B183
:1055200006F0B8FD236893F9082012F10C0F02DB96
:1055300094F904201A7206F0B9FD38BD5378032B94
:1055400003D02BB1F6232371E8E7F7232371E5E7B6
:105550001046FFF77DF92068274BA289A1684068B3
:1055600002F022FA20710028D8D12268137F03218B
:10557000517013F0020308D021680A7F42F0040240
:105580000A7743B1FB232371C8E721680A7F22F021
:1055900004020A77F5E723685C6223685B78032BD3
:1055A00017D1164D284606F05DFD206800210C300D
:1055B00006F003FD284606F04EFD23685B78032BBA
:1055C000BBD10F4B40F2E9420E490F4808F02CFACC
:1055D000B3E70B4B40F2E5420A490B4808F024FAC6
:1055E000DFE7074B40F2F2420849074808F01CFA8F
:1055F000FA23237192E700BF594A0008E8280120E6
:1056000014F0000848F400088CED000850F400087D
:1056100070B505460023037103685A6822B11B78F0
:1056200003F0F003102B0FD02B6863B106F032FDAE
:105630002B6893F9082012F10C0F02DB95F9042076
:105640001A7206F033FD70BD846808E04FF6FF76ED
:105650002B683146586801F04FFBA41BE4D0B4F529
:10566000803FF3D2A6B2F3E738B50446036893F956
:10567000082012F10C0F0FDA027163B106F00AFD77
:10568000236893F9082012F10C0F02DB94F904202F
:105690001A7206F00BFD38BD1A7802F0F002102ADB
:1056A00002D0FA220271E8E75A7812B1FB220271A5
:1056B000E3E75A68002A48D001225A7003685A6A00
:1056C000002A2ED0224B40F283622249224808F061
:1056D000ABF9E3684BB323685C622368002119626D
:1056E0002068FFF727FA0028D5D023685B78012BC4
:1056F00023D11A4D284606F0B5FC206800210C3055
:1057000006F05BFC284606F0A6FC23685B78012BBC
:10571000C1D10F4B40F28D6211490F4808F084F956
:10572000B9E71B6A002BD4D0CCE7094B40F2846266
:105730000C49094808F078F9CDE7054B40F2896239
:105740000749054808F070F9D3E7F522027194E79C
:1057500014F000082CF400088CED0008E828012063
:1057600048F4000868F4000838B504460068427838
:10577000436823B1037803F0F003102B10D0F52316
:10578000237160B106F086FC236893F9082012F1BA
:105790000C0F02DB94F904201A7206F087FC38BD66
:1057A000237A032B01D0022AE9D0032A36D0012A1A
:1057B00037D013F0010F37D123685A6A002A36D048
:1057C000214B40F21C722149214808F02DF9236831
:1057D00004225A7023685C6200212068FFF7B4FA43
:1057E0000028DCD023685B78042B24D1194D28468F
:1057F00006F038FC206800210C3006F0DEFB28465D
:1058000006F029FC23685B78002BC8D00E4B40F2D1
:10581000257211490E4808F007F9C0E7F5232371F6
:10582000AFE7FB232371ACE7FFF726FDC4E71B6A54
:10583000002BCCD0C4E7044B40F221720649044847
:1058400008F0F2F8D2E700BF14F000082CF40008CA
:105850008CED0008E828012048F4000868B110B574
:105860000446006820B100F003FE0023636023605B
:105870002146062000F02AFC10BD704708B558B13B
:10588000034691B1D2B1406808B3406808605B68D4
:105890005B891380002008BD0E4BC2220E490F48C1
:1058A00008F0C2F86FF00F00F5E70A4BC3220C496D
:1058B0000A4808F0B9F86FF00F00ECE7054BC42276
:1058C0000849064808F0B0F86FF00F00E3E76FF002
:1058D0000100E0E794F4000874F500088CED00087E
:1058E00090F50008B0F5000800B583B0204B1B68A8
:1058F00013B11F4A506898471E4806F0ACFB0EE0F3
:105900001D4B69221D491E4808F08EF807E0DA6831
:105910009968586890470199092000F0D7FB154C09
:10592000204606F09FFB01A9164804F00BFD204617
:1059300006F091FB019B002BE2D01A78032A0AD0D3
:10594000042A10D0022AE2D00B4B9B220B490C48B0
:1059500008F06AF8E3E75A689868904701990820C8
:1059600000F0B4FBDBE75A6898689047D7E700BFC0
:10597000E0260120E828012004F6000834F600089B
:105980008CED0008E8260120F8B507460E461546BE
:10599000134806F0F0FA88B1092000F07DFB0446B8
:1059A000D0B10223037047608660C56001460C4891
:1059B00006F097FA034640B91846F8BD094BB522E0
:1059C00009490A4808F030F8E6E72146092000F0C6
:1059D0007DFB4FF0FF33EFE74FF0FF33ECE700BF05
:1059E000E826012004F6000854F600088CED0008B3
:1059F00008B591F82B3013F0180F03D1034AFFF7C5
:105A0000C3FF08BD024AFFF7BFFFFAE799B20008DB
:105A10007DBD0008F8B507460E461546164806F047
:105A2000AAFA88B1082000F037FB044600B303232C
:105A300003704760866075B901460F4806F051FA59
:105A4000034670B91846F8BD0C4BEE220C490D48C0
:105A500007F0EAFFE6E70146074806F036FA0023BA
:105A6000F0E72146082000F031FB4FF0FF33E9E773
:105A70004FF0FF33E6E700BFE826012004F60008F8
:105A800054F600088CED000870B505460E46054C2E
:105A9000204606F0E0FA3046A847204606F0E2FA33
:105AA000002070BDE828012030B583B005460C46C3
:105AB00000F047F81348056044600621083006F0FE
:105AC000E9F970B9104806F0B5FA90B903230093CC
:105AD0004FF4806300220D490D4806F0C8FA03B068
